:0400000074EF0BF09E
:1000080000C01EF001C01DF002C01CF003C01BF0B0
:1000180004C01AF005C019F008C018F009C017F09C
:100028000AC016F00BC015F0E1CF27F0E2CF28F098
:10003800E9CF25F0EACF26F0F3CF23F0F4CF24F070
:10004800F5CF22F0F8CF1FF0F7CF20F0F6CF21F050
:100058003AEC0AF022C0F5FF1FC0F8FF20C0F7FFF6
:1000680021C0F6FF23C0F3FF24C0F4FF1EC000F038
:100078001DC001F01CC002F01BC003F01AC004F040
:1000880019C005F018C008F017C009F016C00AF02A
:1000980015C00BF025C0E9FF26C0EAFF27C0E1FF25
:0600A80028C0E2FF110078
:1000AE000B6A0A6A096A00500402F4CF09F0F3CF12
:1000BE0008F001500502F4CF0BF0F3CF0AF0005018
:1000CE000502F3500926F4500A22E86A0B22015069
:1000DE000402F3500926F4500A22E86A0B2208C0E3
:1000EE0000F009C001F00AC002F00BC003F01200CC
:1000FE001E0E716E100E0001646F040E656F64C0EB
:10010E00E1FF65C0E2FFE69E64C0E1FF65C0E2FF6D
:10011E00E69C040E6425E16E000E6521E26EE68C0F
:10012E00180E6A6F040E6B6F6AC0E1FF6BC0E2FFC0
:10013E00E69E6AC0E1FF6BC0E2FFE69C040E6A25F4
:10014E00E16E000E6B21E26EE68C020E6425E16E0E
:10015E00000E6521E26E6FC0E6FF70C0E6FF010E75
:10016E006425E16E000E6521E26E400EE66E64C0FF
:10017E00E9FF65C0EAFFEECF00F064C0E1FF65C0A5
:10018E00E2FF400E0014E66E64C0E9FF65C0EAFFB0
:10019E00EECF00F064C0E1FF65C0E2FF880E0010F4
:1001AE00E66E64C06DF065C06EF0040E6419006EEC
:0601BE0000C064F0120015
:1001C4000401286B296B4AD00001768F0401288131
:1001D40000016651010A02E10401288354D00001A0
:1001E400768F51D00001768F040124BF16D024C429
:1001F40003F00F0E031603C000F0000E016E00366C
:1002040000900136620E0024E96E000E0120EA6EB1
:10021400EECF04F0EECF05F015D024C403F00F0E9A
:10022400031603C000F0000E016E00360090013684
:10023400680E0024E96E000E0120EA6EEECF04F091
:10024400EECF05F004C0E9FF05C0EAFFEECF01F0F0
:1002540001A403D00401010E286F15D020C401F0BD
:100264001F0E01160150000AAFE020C401F01F0E5A
:1002740001160150010AB3E020C401F01F0E01165B
:100284000150020AAFE0000176AF07D0280E736F69
:0C029400040E746F7681020E776F12006A
:1002A00020C401F01F0E01160150010A01E094D094
:1002B00004012451000A01E08FD02151060A42E1D5
:1002C00037D000017151010A17E1150E006E180EAA
:1002D000016E000E026E120E0026000E0122022296
:1002E00000C073F001C074F002C075F0090E776FA2
:1002F000000E786FC00E766F25D000017151010A93
:1003000012E13E0E006E180E016E000E026E00C06D
:1003100073F001C074F002C075F0210E776F000E0B
:10032000786FC00E766F0ED00001800E766F0AD007
:1003300004012351210AC5E02351220ADEE02351A2
:10034000230AF2E020C401F0600E0116050E006ED3
:10035000005004E00132019EFF0FFBD70150010A5B
:1003600001E03AD026D038D037D07C0E0001736F30
:10037000000E746F010E776F000E786FC10E766FEE
:100380002BD00001800E766F23C47CF025D00001B5
:100390007B0E736F000E746F010E776F000E786F17
:1003A000810E766F19D00001800E766F22C47BF02B
:1003B00013D004012151010AD6E02151090AD4E0E9
:1003C0002151020AD2E021510A0ADBE02151030A3D
:0A03D000DEE021510B0AE7E0120005
:1003DA0004012251010A13E120C401F01F0E011683
:1003EA000150000A0CE10001768F04012151030A31
:1003FA0004E1010E0001666F02D00001666B040180
:10040A002251000AD8A48DD020C401F01F0E011673
:10041A000150020AD8A485D024C401F00F0E011697
:10042A000150000AD8B47DD00001768F040124BFA0
:10043A0016D024C403F00F0E031603C000F0000EFA
:10044A00016E003600900136620E0024E96E000E3D
:10045A000120EA6EEECF04F0EECF05F015D024C4E9
:10046A0003F00F0E031603C000F0000E016E0036F3
:10047A0000900136680E0024E96E000E0120EA6E33
:10048A00EECF04F0EECF05F02151030A07E104C0D4
:10049A00E1FF05C0E2FF840EE66E43D024C400F0FB
:1004AA000F0E0016700E026E0F0E036E005002261B
:1004BA00D8B0032A02C0E9FF03C0EAFFFE0EEE1419
:1004CA00006EEECF01F0FF0E011602C0E1FF03C07D
:1004DA00E2FF00C0E6FF01C0E6FF24AF11D004C06E
:1004EA00E1FF05C0E2FFE66A040E0418006E00C0D0
:1004FA0004F004C0E1FF05C0E2FF400EE66E11D031
:10050A0004C0E1FF05C0E2FF880EE66E040E04187F
:10051A00006E00C004F004C0E1FF05C0E2FFC80E8F
:04052A00E66E120067
:10052E00000E0001785D02E1080E775D10E277C0E3
:10053E0003F078C004F06C51000A03E1010E6C6FF9
:10054E0005D06C51010A02E1020E6C6F04D0080E48
:10055E00036E000E046E68C0E1FF69C0E2FFE69212
:10056E0068C0E1FF69C0E2FFE69068C0E9FF69C0BC
:10057E00EAFFEECF00F068C0E1FF69C0E2FF045071
:10058E000010E66E010E6825E16E000E6921E26E26
:10059E0003C0E6FF0350775D006E04507859016E7C
:1005AE0000C077F001C078F0280E946F040E956F9E
:1005BE0076B12FD0035004102BE073C0F6FF74C039
:1005CE00F7FF75C0F8FF0900F5CF00F094C0E1FF0A
:1005DE0095C0E2FF00C0E6FF944B952B010E7325EC
:1005EE00006E000E7421016E000E7521026E00C0A9
:1005FE0073F001C074F002C075F0010E035C006E62
:10060E00000E0458016E00C003F001C004F0D2D7F2
:10061E0024D00350041021E073C0E9FF74C0EAFF38
:10062E0094C0E1FF95C0E2FFEECFE6FF944B952B11
:10063E00010E7325006E000E7421016E00C073F062
:10064E0001C074F0010E035C006E000E0458016EC2
:0C065E0000C003F001C004F0DCD7120063
:10066A0004012051800AD8A478D0C00E0001766F08
:10067A0069D00001770E006E180E016E000E026E30
:10068A0000C073F001C074F002C075F0120E776FEB
:10069A00000E786F62D00001030E006E000E016E2C
:1006AA0022C404F0000E056EFDDC990E0024E96EEA
:1006BA00000E0120EA6EEECF73F0EECF74F0EECFAB
:1006CA0075F0020E7325F66E000E7421F76E000E99
:1006DA007521F86E0900F5CF00F00900F5CF01F099
:1006EA0000C077F001C078F038D00401225100012F
:1006FA00875D23E3030E006E000E016E22C404F030
:10070A00000E056ECFDC9C0E0024E96E000E01205F
:10071A00EA6EEECF73F0EECF74F0EECF75F073C0E1
:10072A00F6FF74C0F7FF75C0F8FF0900F5CF00F0B7
:10073A0000C077F0000E786F01D0766B0ED0000102
:10074A00766B0BD004012351010A93E02351020A6C
:0C075A00A2E02351030AC9E0F2D712000C
:100766000001768F716A726B22C471F07151000AB2
:1007760003E1100E676F03D0200E676FBDDC120019
:10078600010E00018825E96E000E8921EA6EEECF82
:1007960000F000C002F0000E8F5D02E102508E5D97
:1007A60003E28EC002F00AD002508E5D006E000E8B
:1007B6008F59016E00C08EF001C08FF0036A02509F
:1007C600035C1CE2280EE96E040EEA6E0350E9266D
:1007D600D8B0EA2AEECF00F08BC0E1FF8CC0E2FF72
:1007E60000C0E6FF010E8B25006E000E8C21016E07
:1007F60000C08BF001C08CF0032AE1D7000E006E1A
:100806008F51005C02E18E51000828E2010E972507
:10081600E16E000E9821E26E080EE66E020E972536
:10082600E16E000E9821E26E280EE66E040EE66E6C
:1008360088C0E9FF89C0EAFFEECF00F000BC07D010
:1008460097C0E1FF98C0E2FFC80EE66E06D097C0DB
:10085600E1FF98C0E2FF880EE66E19D0010E9725DB
:10086600E16E000E9821E26E080EE66E020E9725E6
:10087600E16E000E9821E26E200EE66E040EE66E24
:1008860097C0E1FF98C0E2FF840EE66E8D9F1200CE
:10089600150E0001996F180E9A6F000E9B6F890E48
:1008A6009C6F180E9D6F000E9E6F5F0E9F6F180E49
:1008B600A06F000EA16FEB0EA26F170EA36F000EB6
:0408C600A46F120009
:0E08CA00160E6F6E9F0E6B6E3B0E696E120067
:1008D80020C401F0600E0116050E006E005004E001
:1008E8000132019EFF0FFBD70150000A01E05ED0E4
:1008F8003AD00001768F080E676F58D0B2DE56D016
:100908002EDF54D00001710E736F000E746F768164
:10091800010E776F768F4AD051DC48D05ADD46D029
:10092800720E006E000E016E040124510026D8B02C
:10093800012A00C073F001C074F000017681010E35
:10094800776F768F33D00001768F720EE16E000ECE
:10095800E26E04012451E126D8B0E22A22C4E6FF5F
:1009680025D024D023D004012151050AC2E0215109
:10097800060AC4E02151090AC3E02151080AC2E06D
:100988002151000AC9E02151010AC8E02151030A96
:10099800C5E021510A0AC4E021510B0AD4E02151D3
:0E09A800070ADFE021510C0ADDE0DCD7120067
:0A09B6000001865301E071DC12001D
:1009C00000018A6B68C0E1FF69C0E2FFE66A040EBD
:1009D0006819E16E69C0E2FF000EE21AE66A8DAFA7
:0609E00001D08D9F120002
:1009E6006D98000176BF49D08DAF28D0020E8A6F70
:1009F600010E6825E16E000E6921E26EE66A68C0A6
:100A0600E1FF69C0E2FFC80EE66E010E9725E16EB2
:100A1600000E9821E26E080EE66E020E9725E16E34
:100A2600000E9821E26E280EE66E040EE66E97C062
:100A3600E1FF98C0E2FFC80EE66E1ED0010E9725B4
:100A4600E16E000E9821E26E080EE66E020E972504
:100A5600E16E000E9821E26E200EE66E040EE66E42
:100A660097C0E1FF98C0E2FF8C0EE66E68C0E1FF1A
:100A760069C0E2FF840EE66E82D08DBF80D004018D
:100A860020AF55D0000178510401275D04E1000133
:100A960077510401265D04E226C477F027C478F076
:100AA60043DD010E8A6F010E9725E16E000E982137
:100AB600E26E080EE66E020E9725E16E000E982194
:100AC600E26E200EE66E040EE66E97C0E1FF98C059
:100AD600E2FF800EE66E966B010E8825E16E000E33
:100AE6008921E26E080EE66E020E8825E16E000E82
:100AF6008921E26E200EE66E040EE66E88C0E1FFE6
:100B060089C0E2FF840EE66E010E966F020E68251E
:100B1600E16E000E6921E26E280EE66E040EE66EA8
:100B260068C0E1FF69C0E2FFC80EE66E28D000018A
:100B3600020E8A6F010E6825E16E000E6921E26ED3
:100B4600E66A68C0E1FF69C0E2FFC80EE66E010E04
:100B56009725E16E000E9821E26E080EE66E020EF3
:100B66009725E16E000E9821E26E280EE66E040EC1
:100B7600E66E97C0E1FF98C0E2FFC80EE66E12006F
:100B8600040E00016819006E00C068F06751080A7B
:100B96000AE122C46EFF6E50000803E2100E676F72
:100BA60002D0040E676F8A51010A3AE1020E6825E7
:100BB600E16E000E6921E26E280EE66E040EE66E08
:100BC600B3DC6C51020A07E168C0E1FF69C0E2FFCD
:100BD600840EE66E24D0040E6819006E00C068F01C
:100BE60068C0E9FF69C0EAFFEECF00F000BC0CD098
:100BF600040E6819006E00C068F068C0E1FF69C0A5
:100C0600E2FFC80EE66E0BD0040E6819006E00C037
:100C160068F068C0E1FF69C0E2FF880EE66E01D0A9
:040C2600CCDE12000E
:100C2A006D92699468A403D0FB0E6816FBD7120074
:100C3A002DDE6D6B6E6B7D6B7E6B6A6A686A40DE59
:100C4A006D8C6E6A716A6D9C846B856B000E855D16
:100C5A0002E1080E845D17E284C000F085C001F04D
:100C6A00003600900136003600900136000E00244E
:100C7A00E16E040E0120E26EE66AE66AE66AE66A58
:100C8A00844B852BE3D7160E706E68A603D0F70E39
:100C9A006816FBD7766B8D6B8E6B8F6B6D98080E13
:0C0CAA00686F040E696F716B676B1200BD
:0A0CB6006984EF0E68166D821200CB
:040CC000A19A1200E3
:100CC40000018A51020A02E15CDD1ED077DE9651F2
:100CD400000A19E1010E9725E16E000E9821E26EDB
:100CE400080EE66E020E9725E16E000E9821E26E64
:100CF400200EE66E040EE66E97C0E1FF98C0E2FF98
:0A0D04008C0EE66E01D0966B120013
:100D0E0070A019D088C0E9FF89C0EAFFEECF01F0CC
:100D1E000150800A0FE168C0E9FF69C0EAFFEECF1B
:100D2E0001F00150840A06E188C0E1FF89C0E2FFAC
:0C0D3E008C0EE66E7090DF0E681612003E
:100D4A0068C0E9FF69C0EAFFEECF00F000AE05D047
:100D5A0068C0E1FF69C0E2FFE66A00016C6B8A6B5A
:0E0D6A00776B786B766BB3DD21DE38DE12001E
:0A0D7800D08EA28AA08AF28E12002B
:100D820000016751000A0AE16D6A696A9DDD6DB66C
:100D920002D06D86FCD70001010E676F6751010A10
:100DA20008E16DBA06D0686A696A69806988020ECC
:100DB200676F68A405D069A403D0FB0E681634DF00
:100DC2006DA202D07CDFD4D068A018D069A016D062
:100DD20033DF040E676F200E0401026F040E036FEF
:100DE200080E016F000E0015006E00C000F48C0E9C
:100DF2000011006E00C000F4FE0E681668A805D04F
:100E020069A803D057DFEF0E681668AC04D069AC4E
:100E120002D0BF0E681668AA03D069AA01D076DF95
:100E220068A202D069B26A6A040E0001675D02E23A
:100E320046DF9ED069A69BD0B36B040EB35DD8B0DB
:100E420096D068A691D06CCF83F0F70E6816780E14
:100E52008315016E0150000AD8A485D0FD0E8315BA
:100E6200016E026AFF0E0216000E021802E1000E67
:100E720001186BE17E0E8315016E01C003F003328F
:100E8200039E03C000F0000E016E00360090013692
:100E9200003600900136000E0024026E040E01207E
:100EA200036E02C088F003C089F002C097F003C04D
:100EB20098F0040E9719006E00C097F002C0E9FF87
:100EC20003C0EAFFEECF00F000C001F03C0E0116B5
:100ED2000132019E0132019E01500D0A34E1020EDF
:100EE2008825E96E000E8921EA6EEECF01F0EECF81
:100EF20002F00250040A02E1280E011822E1020E59
:100F02008825E16E000E8921E26E200EE66E040E47
:100F1200E66EB26B080EB25D14E2200EE16E040EB4
:100F2200E26EB251E126D8B0E22A280EE96E040E32
:100F3200EA6EB251E926D8B0EA2AEECFE6FFB22B2A
:100F4200E9D702DF01D0BDDE0DD0FD0E8315016EA3
:100F5200026AFF0E0216000E021802E1040E0118C8
:100F620001E110DE00D001D002D0B32B66D7A7DE9C
:020F720012006B
:100F74000001B351000A12E0B2C000F0000E016E8D
:100F8400003600900136680E0024E96E000E012040
:100F9400EA6EEECF04F0EECF05F011D0B2C000F04F
:100FA400000E016E003600900136620E0024E96ED8
:100FB400000E0120EA6EEECF04F0EECF05F0020E33
:100FC4000424E16E000E0520E26EB4C0E6FFB5C055
:100FD400E6FF010E0424E16E000E0520E26EB6C0A9
:100FE400E6FF04C0E9FF05C0EAFFEECF00F004C04D
:100FF400E1FF05C0E2FF400E0014E66E04C0E9FF05
:1010040005C0EAFFEECF00F004C0E1FF05C0E2FF37
:10101400880E0010E66EB351000A1BE0B2C000F067
:10102400000E016E003600900136680E0024026E38
:10103400000E0120036E02C0E9FF03C0EAFF040EA4
:10104400EE18006E02C0E1FF03C0E2FF00C0E6FF3D
:101054001AD0B2C000F0000E016E003600900136C6
:10106400620E0024026E000E0120036E02C0E9FF2E
:1010740003C0EAFF040EEE18006E02C0E1FF03C0D5
:10108400E2FF00C0E6FF04C000F005C001F012005A
:101094000001B56BB66BB76B020EB225F66E000E8F
:1010A400B321F76E000EB421F86E0900F5CF05F0F8
:1010B400030EB225F66E000EB321F76E000EB421B6
:1010C400F86E0900F5CF00F000C003F0000E046EC6
:1010D40003C001F0006A05500024066E000E0120D2
:1010E400076EB2C008F0B3C009F0B4C00AF0010E34
:1010F4000824F66E000E0920F76E000E0A20F86E22
:101104000900F5CF01F00150020A1BE1060E082484
:10111400F66E000E0920F76E000E0A20F86E090024
:10112400F5CF01F00150B55D0CE2060E0824F66E11
:10113400000E0920F76E000E0A20F86E0900F5CFA4
:10114400B5F0010E0824F66E000E0920F76E000EAD
:101154000A20F86E0900F5CF01F00150040A1BE1E2
:10116400080E0824F66E000E0920F76E000E0A2001
:10117400F86E0900F5CF01F00150B55D0CE2080EE0
:101184000824F66E000E0920F76E000E0A20F86E91
:101194000900F5CFB5F008C0F6FF09C0F7FF0AC093
:1011A400F8FF0900F5CF00F00050B625016E000EDF
:1011B400B721026E01C0B6F002C0B7F00750025C5E
:1011C40002E10650015C01E30FD008C0F6FF09C03C
:1011D400F7FF0AC0F8FF0900F5CF00F00050082619
:0E11E400000E09220A2283D7B5C000F01200C7
:1011F200770E006E180E016E000E026E0E0E0024A7
:10120200F66E000E0120F76E000E0220F86E090045
:10121200F5CF03F003C004F00F0E0024F66E000EAB
:101222000120F76E000E0220F86E0900F5CF01F0E2
:101232000150035C12E2770E006E180E016E000E72
:10124200026E0F0E0024F66E000E0120F76E000EE5
:101252000220F86E0900F5CF04F0770E006E180E2A
:10126200016E000E026E100E0024F66E000E0120BA
:10127200F76E000E0220F86E0900F5CF01F0015062
:10128200045C12E2770E006E180E016E000E026E02
:10129200100E0024F66E000E0120F76E000E0220E2
:0E12A200F86E0900F5CF04F004C000F0120051
:1012B000000E0001B31902E1000EB21902E1016A49
:1012C0000AD0B2C0E9FFB3C0EAFFEECF00F0000ED3
:0C12D00000BE010E016E01C000F0120013
:1012DC0000016751000A0BE16D6A696A65EC04F064
:1012EC0045DD6DB602D06D86FCD7010E676F12001E
:1012FC000001B16B200E675D03E36DB201D002D02B
:10130C00006A2DD06DC0B2F06EC0B3F0CBDF0052CE
:10131C0025E16DC0AFF06EC0B0F0000E6E1902E1A9
:10132C00000E6D190AE0010EAF25E96E000EB0211A
:10133C00EA6EEECF00F000C0B1F0AEC0B2F0B36B0D
:10134C00ABC0B4F0ACC0B5F0ADC0B6F00DDE00C0B3
:10135C006DF001C06EF0B1C000F001D0006A120057
:10136C00200E0001675D03E36DB201D002D0006A6C
:10137C0046D07DC0B2F07EC0B3F094DF00523EE1A7
:10138C00AEC0B2F0010EB36FABC0B4F0ACC0B5F0F0
:10139C00ADC0B6F0E9DD00C07DF001C07EF07F6B22
:1013AC00806B816B826B7DC0B2F07EC0B3F07ADF54
:1013BC0000520FE0010E016E0150000A01E1DBDC6E
:1013CC0000017F5180118111821102E0006A17D057
:1013DC00EAD77DC0AFF07EC0B0F0000E7E1902E1FE
:1013EC00000E7D1909E0010EAF25E96E000EB0214B
:1013FC00EA6EEECF00F003D0006A01D0006A120052
:10140C00F2DE00C0ABF0150E0001B26F180EB36F18
:10141C00000EB46F39DE00C0ACF0AB51005C03E2DF
:0C142C00ABC000F002D0ACC000F0120019
:10143800E9DF00C087F0010E866FA6C06FF0A7C075
:1014480070F0A8C079F0A9C07AF01DEC06F0010E82
:0C145800016E0150010A01E13DDF1200AD
:101464000900F5CFE6FF0006FBE10106F9E11200F1
:1014740000016751010A07E16DBA05D0686A698005
:101484006988020E676F68A406D069A404D0FB0EB5
:10149400681615EC06F06DA202D010DCDBD068A053
:1014A40019D069A017D01DEC06F0040E676F200E4A
:1014B4000401026F040E036F080E016F000E001585
:1014C400006E00C000F48C0E0011006E00C000F429
:1014D400FE0E681668A806D069A804D05BEC06F076
:1014E400EF0E681668AC04D069AC02D0BF0E681663
:1014F40068AA03D069AA01D008DC68A202D069B244
:101504006A6A040E0001675D03E260EC06F0A2D093
:1015140069A69ED0B96B040EB95DD8B099D068A6FF
:1015240094D06CCF83F0F70E6816780E8315016E95
:101534000150000AD8A488D0FD0E8315016E026AFA
:10154400FF0E0216000E021802E1000E01186DE1F2
:101554007E0E8315016E01C003F00332039E03C0A7
:1015640000F0000E016E0036009001360036009047
:101574000136000E0024026E040E0120036E02C028
:1015840088F003C089F002C097F003C098F0040EFD
:101594009719006E00C097F002C0E9FF03C0EAFF8C
:1015A400EECF00F000C001F03C0E01160132019EA6
:1015B4000132019E01500D0A35E1020E8825E96EC3
:1015C400000E8921EA6EEECF01F0EECF02F0025058
:1015D400040A02E1280E011822E1020E8825E16EB8
:1015E400000E8921E26E200EE66E040EE66EB86BE4
:1015F400080EB85D14E2200EE16E040EE26EB851DE
:10160400E126D8B0E22A280EE96E040EEA6EB8513B
:10161400E926D8B0EA2AEECFE6FFB82BE9D7A5EC45
:1016240006F002D062EC06F00ED0FD0E8315016EBA
:10163400026AFF0E0216000E021802E1040E0118DF
:1016440002E1C3EC05F000D001D002D0B92B63D77E
:0616540060EC06F012003C
:10165A006FC0ABF070C0ACF0400E0001AD6F010E70
:06166A00AE6F47DE120026
:10167000AAC000F00001AA07005228E0A6C0E9FFB6
:10168000A7C0EAFFEE50000A0CE0A6C0E9FFA7C021
:10169000EAFFA8C0D9FFA9C0DAFFEE50DE1801E1C9
:1016A0000FD0A6C0E9FFA7C0EAFFA8C0D9FFA9C014
:1016B000DAFFDE50EE5C006E016A000E015A08D0BF
:1016C0000001A64BA72BA84BA92BD2D7006A016A11
:0216D000120006
:1016D200A6C0ABF0A7C0ACF0A8C0ADF0010E0001EF
:0616E200AE6F43DE1200B2
:1016E80047EC0CF0956AFF0E936E000E0001A66F92
:1016F800050EA76F400EA86F050EA96F99DEA9DF2A
:10170800005201E1FCD7400EE16E050EE26EA551D4
:10171800E126D8B0E22A000EE96E050EEA6EA55160
:10172800E926D8B0EA2AEECFE6FF400EA66F050EEE
:10173800A76F400EA86FC9DF005201E1F6D7000E6F
:10174800A66F050EA76F350EA86F000EA96F010EC4
:10175800AA6F8ADF000E011802E1000E001809E1E5
:101768002E0E0001A66F000EA76F400EA86FADDF0A
:1017780008D00001290EA66F000EA76F400EA86FB3
:10178800A4DF81B807D0370EA66F000EA76F400EF2
:10179800A86F9BDF81BA07D04C0EA66F000EA76F0B
:0A17A800400EA86F92DFABD7FFD709
:10188E0010EE29F0390E006E010E016EB20EF66EDC
:0E189E00170EF76E000EF86E32EC0AF0120014
:0517B2004661696C00B6
:0717B70053756365737300B5
:0217BE004100E8
:1017C000466972737420427574746F6E205072652E
:0517D000737365640065
:1017D5005365636F6E6420427574746F6E2050722A
:0617E500657373656400EA
:1017EB002A0353004E00540054006500730074002C
:1017FB002D005500530042002D00500049004300BE
:0A180B004D006900630072006F00D9
:1018150009022900010100803209040000020300C9
:101825000000092101010001222100070581034073
:0918350000010705010340000158
:10183E000600FF0901A10119012940150026FF002C
:10184E00750895408102190129407508954091024D
:01185E00C0C9
:10185F00180353004E0054005400650073007400C9
:08186F002D005500530042005A
:1018770012010002000000083412010001000102F9
:0218870000015E
:041889000403090447
:020000040030CA
:0E000000240C1F1EFF8381FF0FC00FE00F4076
:00000001FF
