:040000008EEF00F08F
:1000080000C019F001C018F00BC017F00CC016F0B2
:100018000DC015F09EAA16D041D800C060F000505F
:10002800310A0FE18A8E1A0E0B6E5E0E0C6E6E0E82
:100038000D6E0D2EFED70C2EFCD70B2EFAD7000016
:1000480001D08A9E19C000F018C001F017C00BF04B
:0A00580016C00CF015C00DF01100E9
:0E006200ACB202D00000FCD765C0ADFF1200AA
:100070000001646B61C0E9FF62C0EAFFEECF63F08C
:100080006351000A0EE063C065F0EBDF0001642BF2
:1000900064516125E96E000E6221EA6EEECF63F0D5
:0400A000EFD7120084
:1000A400AECF01F0ABA202D0AB98AB8801C000F098
:0200B400120038
:1000B6000900F5CFE6FF0006FBE10106F9E11200B3
:1000C600620E546E000E556E650E566E000E576E1D
:1000D600A40E5C6E000E5D6E000E5E6E000E5F6E10
:1000E600FF0E506EFF0E516E000E526E000E536ED6
:1000F600FF0E586EFF0E596E000E5A6E000E5B6EA6
:10010600AC8A900EAB6E948E949C9EAA03D0AECF12
:0601160000F0FBD712000F
:10011C00E1EC00F0936AB886020EB06E080EAF6E7A
:10012C00AC84CBDF030E0B6E8A0E0C6E550E0D6E6F
:10013C000D2EFED70C2EFCD70B2EFAD7000000008C
:10014C001A0E0001616F000E626F8CDF080E0B6ED1
:10015C009D0E0C6E050E0D6E0D2EFED70C2EFCD7C3
:10016C000B2EFAD700000000310E616F000E626F8B
:10017C0079DFF28EF28C9D8A9E8A8A9EFED7FFD7FB
:1001C20010EE1AF0360E006E010E016E8C0EF66EF7
:0E01D200010EF76E000EF86E5BEC00F01200EE
:10018C0077656C636F6D6520746F2074686973207C
:07019C00636F7572736500CB
:1001A300205072657373203120746F205475726E02
:0F01B300206F6E204C4544206F6E205242370063
:020000040030CA
:0D000100231F3CFFBF81FF0FC00FE00F4029
:00000001FF
