:0400000011EF0BF001
:1000080000C01EF001C01DF002C01CF003C01BF0B0
:1000180004C01AF005C019F008C018F009C017F09C
:100028000AC016F00BC015F0E1CF27F0E2CF28F098
:10003800E9CF25F0EACF26F0F3CF23F0F4CF24F070
:10004800F5CF22F0F8CF1FF0F7CF20F0F6CF21F050
:10005800FFEC09F022C0F5FF1FC0F8FF20C0F7FF32
:1000680021C0F6FF23C0F3FF24C0F4FF1EC000F038
:100078001DC001F01CC002F01BC003F01AC004F040
:1000880019C005F018C008F017C009F016C00AF02A
:1000980015C00BF025C0E9FF26C0EAFF27C0E1FF25
:0600A80028C0E2FF110078
:1000AE000B6A0A6A096A00500402F4CF09F0F3CF12
:1000BE0008F001500502F4CF0BF0F3CF0AF0005018
:1000CE000502F3500926F4500A22E86A0B22015069
:1000DE000402F3500926F4500A22E86A0B2208C0E3
:1000EE0000F009C001F00AC002F00BC003F01200CC
:1000FE001E0E716E100E376E040E386E37C0E1FF95
:10010E0038C0E2FFE69E37C0E1FF38C0E2FFE69C52
:10011E00040E3724E16E000E3820E26EE68C180EC7
:10012E002F6E040E306E2FC0E1FF30C0E2FFE69E50
:10013E002FC0E1FF30C0E2FFE69C040E2F24E16EDB
:10014E00000E3020E26EE68C020E3724E16E000EB9
:10015E003820E26E2BC0E6FF2CC0E6FF010E3724DE
:10016E00E16E000E3820E26E400EE66E37C0E9FFFB
:10017E0038C0EAFFEECF00F037C0E1FF38C0E2FF33
:10018E00400E0014E66E37C0E9FF38C0EAFFEECF2E
:10019E0000F037C0E1FF38C0E2FF880E0010E66EB7
:1001AE0037C029F038C02AF0040E3718006E00C090
:0401BE0037F0120004
:1001C2000401286B296B42D03D8E28814150010ADF
:1001D200D8B4288350D03D8E4ED03D8E24BF16D049
:1001E20024C403F00F0E031603C000F0000E016ECC
:1001F200003600900136350E0024E96E000E012013
:10020200EA6EEECF04F0EECF05F015D024C403F071
:100212000F0E031603C000F0000E016E00360090B0
:1002220001362D0E0024E96E000E0120EA6EEECF9B
:1002320004F0EECF05F004C0E9FF05C0EAFFEECFFF
:1002420001F001A402D0010E286F15D020C401F0E4
:100252001F0E01160150000AB7E020C401F01F0E64
:1002620001160150010AB7E020C401F01F0E011669
:100272000150020AB2E03DAE07D0280E3A6E040EDB
:0A0282003B6E3D80020E3E6E12003E
:10028C0020C401F01F0E01160150010A01E08DD0AF
:10029C0004012451000A01E088D02151060A3FE1F3
:1002AC0034D04350010A17E1880E006E160E016E11
:1002BC00000E026E120E0026000E0122022200C059
:1002CC003AF001C03BF002C03CF0090E3E6E000E4D
:1002DC003F6EC00E3D6E23D04350010A12E1D30E87
:1002EC00006E160E016E000E026E00C03AF001C0D8
:1002FC003BF002C03CF0210E3E6E000E3F6EC00E75
:10030C003D6E0DD0800E3D6E0AD004012351210AA2
:10031C00C8E02351220AE0E02351230AF3E020C471
:10032C0001F0600E0116050E006E005004E0013263
:10033C00019EFF0FFBD70150010A01E036D022D0FD
:10034C0034D033D0500E3A6E000E3B6E010E3E6E22
:10035C00000E3F6EC10E3D6E28D0800E3D6E23C444
:10036C0050F023D0480E3A6E000E3B6E010E3E6EDE
:10037C00000E3F6E810E3D6E18D0800E3D6E22C475
:10038C0048F013D004012151010ADAE02151090A85
:10039C00D8E02151020AD6E021510A0ADEE02151AF
:0C03AC00030AE0E021510B0AE8E0120017
:1003B80004012251010A0FE120C401F01F0E0116A9
:1003C8000150000A08E13D8E2151030A03E1010EA4
:1003D800416E01D0416A2251000AD8A48BD020C4B2
:1003E80001F01F0E01160150020AD8A483D024C4BC
:1003F80001F00F0E01160150000AD8B47BD03D8ED3
:1004080024BF16D024C403F00F0E031603C000F057
:10041800000E016E003600900136350E0024E96E9C
:10042800000E0120EA6EEECF04F0EECF05F015D0F5
:1004380024C403F00F0E031603C000F0000E016E73
:100448000036009001362D0E0024E96E000E0120C2
:10045800EA6EEECF04F0EECF05F02151030A07E172
:1004680004C0E1FF05C0E2FF840EE66E43D024C459
:1004780000F00F0E0016700E026E0F0E036E005085
:100488000226D8B0032A02C0E9FF03C0EAFFFE0E25
:10049800EE14006EEECF01F0FF0E011602C0E1FF70
:1004A80003C0E2FF00C0E6FF01C0E6FF24AF11D0A1
:1004B80004C0E1FF05C0E2FFE66A040E0418006EFE
:1004C80000C004F004C0E1FF05C0E2FF400EE66E84
:1004D80011D004C0E1FF05C0E2FF880EE66E040EED
:1004E8000418006E00C004F004C0E1FF05C0E2FF7C
:0604F800C80EE66E1200C2
:1004FE00000E3F5C02E1080E3E5C10E23EC003F0CF
:10050E003FC004F03450000A03E1010E346E05D0F2
:10051E003450010A02E1020E346E04D0080E036E4E
:10052E00000E046E2DC0E1FF2EC0E2FFE6922DC03C
:10053E00E1FF2EC0E2FFE6902DC0E9FF2EC0EAFFDC
:10054E00EECF00F02DC0E1FF2EC0E2FF04500010F0
:10055E00E66E010E2D24E16E000E2E20E26E03C01B
:10056E00E6FF03503E5C006E04503F58016E00C023
:10057E003EF001C03FF0280E5E6E040E5F6E3DB081
:10058E002FD0035004102BE03AC0F6FF3BC0F7FF0C
:10059E003CC0F8FF0900F5CF00F05EC0E1FF5FC080
:1005AE00E2FF00C0E6FF5E4A5F2A010E3A24006EAB
:1005BE00000E3B20016E000E3C20026E00C03AF091
:1005CE0001C03BF002C03CF0010E035C006E000E59
:1005DE000458016E00C003F001C004F0D2D724D03D
:1005EE000350041021E03AC0E9FF3BC0EAFF5EC0B1
:1005FE00E1FF5FC0E2FFEECFE6FF5E4A5F2A010E2B
:10060E003A24006E000E3B20016E00C03AF001C08D
:10061E003BF0010E035C006E000E0458016E00C02C
:0A062E0003F001C004F0DCD7120055
:1006380004012051800AD8A471D0C00E3D6E64D048
:10064800F40E006E160E016E000E026E00C03AF037
:1006580001C03BF002C03CF0120E3E6E000E3F6E31
:100668005DD0030E006E000E016E22C404F0000E71
:10067800056E19DD610E0024E96E000E0120EA6E98
:10068800EECF3AF0EECF3BF0EECF3CF0020E3A243C
:10069800F66E000E3B20F76E000E3C20F86E090047
:1006A800F5CF00F00900F5CF01F000C03EF001C021
:1006B8003FF034D022515C5C23E3030E006E000E41
:1006C800016E22C404F0000E056EEDDC640E0024F9
:1006D800E96E000E0120EA6EEECF3AF0EECF3BF065
:1006E800EECF3CF03AC0F6FF3BC0F7FF3CC0F8FF46
:1006F8000900F5CF00F000C03EF0000E3F6E01D0BB
:100708003D6A0CD03D6A0AD02351010A99E0235171
:0E071800020AA7E02351030ACDE0F4D7120035
:100726003D8E716A396A22C443F04350000A03E1E0
:0E073600100E426E03D0200E426EDEDC12006A
:10074400010E3124E96E000E3220EA6EEECF00F085
:1007540000C002F0000E575C02E10250565C03E256
:1007640056C002F00AD00250565C006E000E575874
:10077400016E00C056F001C057F0036A0250035CDA
:100784001CE2280EE96E040EEA6E0350E926D8B086
:10079400EA2AEECF00F053C0E1FF54C0E2FF00C0EC
:1007A400E6FF010E5324006E000E5420016E00C0BB
:1007B40053F001C054F0032AE1D7000E006E5750E5
:1007C400005C02E15650000828E2010E5124E16E5B
:1007D400000E5220E26E080EE66E020E5124E16E07
:1007E400000E5220E26E280EE66E040EE66E31C054
:1007F400E9FF32C0EAFFEECF00F000BC07D051C0E1
:10080400E1FF52C0E2FFC80EE66E06D051C0E1FF20
:1008140052C0E2FF880EE66E19D0010E5124E16E3B
:10082400000E5220E26E080EE66E020E5124E16EB6
:10083400000E5220E26E200EE66E040EE66E51C0EB
:0E084400E1FF52C0E2FF840EE66E559E1200E8
:10085200880E0001616F160E626F000E636F0E0E3E
:10086200646F170E656F000E666F060E676F170EC8
:10087200686F000E696FB10E6A6F160E6B6F000E15
:040882006C6F120085
:0E088600160E6F6E9F0E6B6E3B0E696E1200AB
:1008940020C401F0600E0116050E006E005004E045
:1008A4000132019EFF0FFBD70150000A01E058D02E
:1008B40034D03D8E080E426E53D0BCDE51D031DFB1
:1008C4004FD0430E3A6E000E3B6E3D80010E3E6EDD
:1008D4003D8E46D074DC44D06DDD42D0390E006EBE
:1008E400000E016E24510026D8B0012A00C03AF04F
:1008F40001C03BF03D80010E3E6E3D8E31D03D8EF9
:10090400390EE16E000EE26E2451E126D8B0E22ADF
:1009140022C4E6FF25D024D023D004012151050AA6
:10092400C8E02151060AC9E02151090AC8E0215151
:10093400080AC7E02151000ACDE02151010ACCE0A8
:100944002151030AC9E021510A0AC8E021510B0AC6
:10095400D6E02151070ADFE021510C0ADDE0DCD7A3
:0209640012007F
:080966005D5201E090DC12007B
:10096E00336A2DC0E1FF2EC0E2FFE66A040E2D1899
:10097E00E16E2EC0E2FF000EE21AE66A55BE559EEB
:02098E00120055
:100990006D983DBE49D055AE28D0020E336E010E83
:1009A0002D24E16E000E2E20E26EE66A2DC0E1FFDE
:1009B0002EC0E2FFC80EE66E010E5124E16E000E5D
:1009C0005220E26E080EE66E020E5124E16E000E19
:1009D0005220E26E280EE66E040EE66E51C0E1FF74
:1009E00052C0E2FFC80EE66E1ED0010E5124E16E29
:1009F000000E5220E26E080EE66E020E5124E16EE9
:100A0000000E5220E26E200EE66E040EE66E51C01D
:100A1000E1FF52C0E2FF8C0EE66E2DC0E1FF2EC05A
:100A2000E2FF840EE66E7ED055BE7CD0040120AF7E
:100A300052D03F50275D02E13E50265D04E226C4BD
:100A40003EF027C43FF05BDD010E336E010E5124F2
:100A5000E16E000E5220E26E080EE66E020E512488
:100A6000E16E000E5220E26E200EE66E040EE66E7F
:100A700051C0E1FF52C0E2FF800EE66E0001606BE4
:100A8000010E3124E16E000E3220E26E080EE66E99
:100A9000020E3124E16E000E3220E26E200EE66E70
:100AA000040EE66E31C0E1FF32C0E2FF840EE66E56
:100AB000010E606F020E2D24E16E000E2E20E26EFC
:100AC000280EE66E040EE66E2DC0E1FF2EC0E2FF9A
:100AD000C80EE66E27D0020E336E010E2D24E16E95
:100AE000000E2E20E26EE66A2DC0E1FF2EC0E2FF6E
:100AF000C80EE66E010E5124E16E000E5220E26E29
:100B0000080EE66E020E5124E16E000E5220E26ED7
:100B1000280EE66E040EE66E51C0E1FF52C0E2FF01
:060B2000C80EE66E120093
:100B2600040E2D18006E00C02DF04250080A0AE18E
:100B360022C46EFF6E50000803E2100E426E02D011
:100B4600040E426E3350010A3AE1020E2D24E16E84
:100B5600000E2E20E26E280EE66E040EE66ECCDC4B
:100B66003450020A07E12DC0E1FF2EC0E2FF840ED9
:100B7600E66E24D0040E2D18006E00C02DF02DC098
:100B8600E9FF2EC0EAFFEECF00F000BC0CD0040E49
:100B96002D18006E00C02DF02DC0E1FF2EC0E2FF23
:100BA600C80EE66E0BD0040E2D18006E00C02DF098
:100BB6002DC0E1FF2EC0E2FF880EE66E01D0D4DE26
:020BC60012001B
:100BC8006D92699468A403D0FB0E6816FBD71200D7
:100BD8003CDE296A2A6A446A456A6A6A686A4FDE9C
:100BE8006D8C6E6A716A6D9C4E6A4F6A000E4F5C1E
:100BF80002E1080E4E5C17E24EC000F04FC001F053
:100C0800003600900136003600900136000E0024B0
:100C1800E16E040E0120E26EE66AE66AE66AE66ABA
:100C28004E4A4F2AE3D7160E706E68A603D0F70E09
:100C38006816FBD73D6A556A566A576A6D98080E5A
:0C0C48002D6E040E2E6E436A426A1200EC
:0A0C54006984EF0E68166D8212002D
:100C5E0070A019D031C0E9FF32C0EAFFEECF01F02B
:100C6E000150800A0FE12DC0E9FF2EC0EAFFEECF42
:100C7E0001F00150840A06E131C0E1FF32C0E2FF0B
:0C0C8E008C0EE66E7090DF0E68161200EF
:100C9A003350020A02E151DD1FD064DE00016051C7
:100CAA00000A19E1010E5124E16E000E5220E26E93
:100CBA00080EE66E020E5124E16E000E5220E26E1C
:100CCA00200EE66E040EE66E51C0E1FF52C0E2FF4E
:0A0CDA008C0EE66E01D0606B120074
:040CE400A19A1200BF
:100CE8002DC0E9FF2EC0EAFFEECF00F000AE05D020
:100CF8002DC0E1FF2EC0E2FFE66A346A336A3E6A1D
:0C0D08003F6A3D6AC3DD2BDE3FDE1200B7
:100D140000017951000A12E078C000F0000E016E63
:100D24000036009001362D0E0024E96E000E0120DD
:100D3400EA6EEECF04F0EECF05F011D078C000F0EB
:100D4400000E016E003600900136350E0024E96E67
:100D5400000E0120EA6EEECF04F0EECF05F0020E95
:100D64000424E16E000E0520E26E7AC0E6FF7BC02B
:100D7400E6FF010E0424E16E000E0520E26E7CC045
:100D8400E6FF04C0E9FF05C0EAFFEECF00F004C0AF
:100D9400E1FF05C0E2FF400E0014E66E04C0E9FF67
:100DA40005C0EAFFEECF00F004C0E1FF05C0E2FF9A
:100DB400880E0010E66E7951000A1BE078C000F03E
:100DC400000E016E0036009001362D0E0024026ED6
:100DD400000E0120036E02C0E9FF03C0EAFF040E07
:100DE400EE18006E02C0E1FF03C0E2FF00C0E6FFA0
:100DF4001AD078C000F0000E016E00360090013663
:100E0400350E0024026E000E0120036E02C0E9FFBD
:100E140003C0EAFF040EEE18006E02C0E1FF03C037
:100E2400E2FF00C0E6FF04C000F005C001F01200BC
:100E340000017B6B7C6B7D6B020E7825F66E000ED9
:100E44007921F76E000E7A21F86E0900F5CF05F0CE
:100E5400030E7825F66E000E7921F76E000E7A21C6
:100E6400F86E0900F5CF00F000C003F0000E046E28
:100E740003C001F0006A05500024066E000E012034
:100E8400076E78C008F079C009F07AC00AF0010E44
:100E94000824F66E000E0920F76E000E0A20F86E84
:100EA4000900F5CF01F00150020A1BE1060E0824E7
:100EB400F66E000E0920F76E000E0A20F86E090087
:100EC400F5CF01F001507B5D0CE2060E0824F66EAE
:100ED400000E0920F76E000E0A20F86E0900F5CF07
:100EE4007BF0010E0824F66E000E0920F76E000E4A
:100EF4000A20F86E0900F5CF01F00150040A1BE145
:100F0400080E0824F66E000E0920F76E000E0A2063
:100F1400F86E0900F5CF01F001507B5D0CE2080E7C
:100F24000824F66E000E0920F76E000E0A20F86EF3
:100F34000900F5CF7BF008C0F6FF09C0F7FF0AC02F
:100F4400F8FF0900F5CF00F000507C25016E000E7B
:100F54007D21026E01C07CF002C07DF00750025C6E
:100F640002E10650015C01E30FD008C0F6FF09C09E
:100F7400F7FF0AC0F8FF0900F5CF00F0005008267B
:0E0F8400000E09220A2283D77BC000F0120063
:0A0F9200D08EA28AA08AF28E12000F
:100F9C00000E0001791902E1000E781902E1016AD4
:100FAC000AD078C0E9FF79C0EAFFEECF00F0000E5E
:0C0FBC0000BE010E016E01C000F012002A
:100FC800F40E006E160E016E000E026E0E0E002458
:100FD800F66E000E0120F76E000E0220F86E090072
:100FE800F5CF03F003C004F00F0E0024F66E000ED8
:100FF8000120F76E000E0220F86E0900F5CF01F00F
:101008000150035C12E2F40E006E160E016E000E23
:10101800026E0F0E0024F66E000E0120F76E000E11
:101028000220F86E0900F5CF04F0F40E006E160EDB
:10103800016E000E026E100E0024F66E000E0120E6
:10104800F76E000E0220F86E0900F5CF01F001508E
:10105800045C12E2F40E006E160E016E000E026EB3
:10106800100E0024F66E000E0120F76E000E02200E
:0E107800F86E0900F5CF04F004C000F012007D
:101086004250000A0AE16D6A696A43EC04F06DB6E3
:1010960002D06D86FCD7010E426E4250010A08E16D
:1010A6006DBA06D0686A696A69806988020E426EFE
:1010B60068A405D069A403D0FB0E681682DD6DA274
:1010C60002D00DDED6D068A018D069A016D081DD7A
:1010D600040E426E200E0401026F040E036F080E0A
:1010E600016F000E0015006E00C000F48C0E00119A
:1010F600006E00C000F4FE0E681668A805D069A848
:1011060003D0A5DDEF0E681668AC04D069AC02D03A
:10111600BF0E681668AA03D069AA01D09DDD68A231
:1011260002D069B26A6A040E425C02E2D8DDA1D03E
:1011360069A69ED00001796B040E795DD8B098D06F
:1011460068A692D06CCF4DF0F70E6816780E4D1447
:10115600016E0150000AD8A486D0FD0E4D14016E12
:10116600026AFF0E0216000E021802E1000E0118B6
:101176006CE17E0E4D14016E01C003F00332039E36
:1011860003C000F0000E016E0036009001360036F6
:1011960000900136000E0024026E040E0120036E3C
:1011A60002C031F003C032F002C051F003C052F069
:1011B600040E5118006E00C051F002C0E9FF03C0D2
:1011C600EAFFEECF00F000C001F03C0E011601323E
:1011D600019E0132019E01500D0A35E1020E3124B5
:1011E600E96E000E3220EA6EEECF01F0EECF02F08D
:1011F6000250040A02E1280E011823E10001020E42
:101206003124E16E000E3220E26E200EE66E040EF0
:10121600E66E786B080E785D14E2200EE16E040E21
:10122600E26E7851E126D8B0E22A280EE96E040E65
:10123600EA6E7851E926D8B0EA2AEECFE6FF782B97
:10124600E9D74FDD01D026DD0DD0FD0E4D14016E20
:10125600026AFF0E0216000E021802E1040E0118C1
:1012660001E15EDC00D001D003D00001792B64D708
:0412760036DD12004F
:10127A000001776B200E425C03E36DB201D002D00D
:10128A00006A2DD029C078F02AC079F082DE005297
:10129A0025E129C075F02AC076F0000E2A1802E16D
:1012AA00000E29180AE0010E7525E96E000E762156
:1012BA00EA6EEECF00F000C077F074C078F0796B78
:1012CA0071C07AF072C07BF073C07CF01EDD00C082
:1012DA0029F001C02AF077C000F001D0006A12009C
:1012EA004250000A0BE16D6A696A43EC04F04CDE75
:0E12FA006DB602D06D86FCD7010E426E12005A
:10130800200E425C03E36DB201D002D0006A46D0E1
:1013180044C078F045C079F03DDE00523EE174C02B
:1013280078F0010E796F71C07AF072C07BF073C0EB
:101338007CF0ECDC00C044F001C045F0496A4A6A20
:101348004B6A4C6A44C078F045C079F023DE0052FD
:101358000EE0010E016E0150000A01E190DE4950D5
:101368004A104B104C1002E0006A18D0EBD744C06A
:1013780075F045C076F0000E451802E1000E4418DD
:101388000AE0010E00017525E96E000E7621EA6E6D
:0E139800EECF00F003D0006A01D0006A120010
:1013A60010DE00C071F0880E0001786F160E796F9E
:1013B600000E7A6F3CDD00C072F07151005C03E2F2
:0C13C60071C000F002D072C000F01200F4
:1013D200E9DF00C05CF0010E5D6E6DC02BF06EC0E7
:1013E2002CF06FC046F070C047F0ECEC05F0010E37
:0C13F200016E0150010A01E177DF1200DA
:1013FE004250010A07E16DBA05D0686A69806988B2
:10140E00020E426E68A406D069A404D0FB0E6816C4
:10141E00E4EC05F06DA202D05EDCDDD068A019D040
:10142E0069A017D0ECEC05F0040E426E200E0401FC
:10143E00026F040E036F080E016F000E0015006E92
:10144E0000C000F48C0E0011006E00C000F4FE0E01
:10145E00681668A806D069A804D02AEC06F0EF0E2C
:10146E00681668AC04D069AC02D0BF0E681668AAC4
:10147E0004D069AA02D02FEC06F068A202D069B29D
:10148E006A6A040E425C02E226DCA5D069A6A1D0EF
:10149E0000017F6B040E7F5DD8B09BD068A695D0FF
:1014AE006CCF4DF0F70E6816780E4D14016E01508C
:1014BE00000AD8A489D0FD0E4D14016E026AFF0EEB
:1014CE000216000E021802E1000E01186EE17E0EE9
:1014DE004D14016E01C003F00332039E03C000F0F1
:1014EE00000E016E00360090013600360090013677
:1014FE00000E0024026E040E0120036E02C031F0B5
:10150E0003C032F002C051F003C052F0040E511865
:10151E00006E00C051F002C0E9FF03C0EAFFEECF3B
:10152E0000F000C001F03C0E01160132019E0132A6
:10153E00019E01500D0A36E1020E3124E96E000EB5
:10154E003220EA6EEECF01F0EECF02F00250040A26
:10155E0002E1280E011823E10001020E3124E16E92
:10156E00000E3220E26E200EE66E040EE66E7E6BEC
:10157E00080E7E5D14E2200EE16E040EE26E7E51C8
:10158E00E126D8B0E22A280EE96E040EEA6E7E51EC
:10159E00E926D8B0EA2AEECFE6FF7E2BE9D774EC27
:1015AE0006F002D04DEC06F00ED0FD0E4D14016E7D
:1015BE00026AFF0E0216000E021802E1040E011856
:1015CE0002E193EC05F000D001D003D000017F2B97
:0815DE0061D772EC06F0120067
:1015E6006DC071F06EC072F06FC073F0010E000135
:0615F600746F87DE120095
:1015FC002BC071F02CC072F0400E0001736F010E05
:06160C00746F35DE1200D0
:101612000900F5CFE6FF0006FBE10106F9E1120041
:10162200000E00016D6F050E6E6F400E6F6F050E9E
:10163200706FCEDEE2DF005201E1FCD7406A400E5D
:10164200405C1FE2400EE16E050EE26E4050E12664
:10165200D8B0E22A000EE96E050EEA6E4050E92685
:10166200D8B0EA2AEECFE6FF0001400E6D6F050EFC
:101672006E6F400E6F6FB6DF005201E1F5D7402A60
:06168200DED7D8D7FFD728
:101688000902290001010080320904000002030058
:101698000000092101010001222100070581034002
:0916A800000107050103400001E7
:1016B100220353004E0054002D00550053004200F8
:1016C1002D005000490043004D0069006300720085
:0216D1006F00A8
:1016D3000600FF0901A10119012940150026FF0099
:1016E30075089540810219012940750895409102BA
:0116F300C036
:1016F400120100020000000834120100010001027E
:021704000001E2
:08170600080353004E005400DB
:04170E0004030904C3
:020000040030CA
:0E000000240E1F1EFF8381FF0FC00FE00F4074
:00000001FF
