:0400000047EF0BF0CB
:1000080000C01EF001C01DF002C01CF003C01BF0B0
:1000180004C01AF005C019F008C018F009C017F09C
:100028000AC016F00BC015F0E1CF27F0E2CF28F098
:10003800E9CF25F0EACF26F0F3CF23F0F4CF24F070
:10004800F5CF22F0F8CF1FF0F7CF20F0F6CF21F050
:100058000DEC0AF022C0F5FF1FC0F8FF20C0F7FF23
:1000680021C0F6FF23C0F3FF24C0F4FF1EC000F038
:100078001DC001F01CC002F01BC003F01AC004F040
:1000880019C005F018C008F017C009F016C00AF02A
:1000980015C00BF025C0E9FF26C0EAFF27C0E1FF25
:0600A80028C0E2FF110078
:1000AE000B6A0A6A096A00500402F4CF09F0F3CF12
:1000BE0008F001500502F4CF0BF0F3CF0AF0005018
:1000CE000502F3500926F4500A22E86A0B22015069
:1000DE000402F3500926F4500A22E86A0B2208C0E3
:1000EE0000F009C001F00AC002F00BC003F01200CC
:1000FE001E0E716E100E3D6E040E3E6E3DC0E1FF83
:10010E003EC0E2FFE69E3DC0E1FF3EC0E2FFE69C40
:10011E00040E3D24E16E000E3E20E26EE68C180EBB
:10012E00396E040E3A6E39C0E1FF3AC0E2FFE69E28
:10013E0039C0E1FF3AC0E2FFE69C040E3924E16EBD
:10014E00000E3A20E26EE68C020E3D24E16E000EA9
:10015E003E20E26E40C0E6FF41C0E6FF010E3D24A8
:10016E00E16E000E3E20E26E400EE66E3DC0E9FFEF
:10017E003EC0EAFFEECF00F03DC0E1FF3EC0E2FF21
:10018E00400E0014E66E3DC0E9FF3EC0EAFFEECF22
:10019E0000F03DC0E1FF3EC0E2FF880E0010E66EAB
:1001AE003DC044F03EC045F0040E3D18006E00C048
:0401BE003DF01200FE
:1001C2000401286B296B42D0498E28813F50010AD5
:1001D200D8B4288350D0498E4ED0498E24BF16D031
:1001E20024C403F00F0E031603C000F0000E016ECC
:1001F2000036009001363B0E0024E96E000E01200D
:10020200EA6EEECF04F0EECF05F015D024C403F071
:100212000F0E031603C000F0000E016E00360090B0
:100222000136370E0024E96E000E0120EA6EEECF91
:1002320004F0EECF05F004C0E9FF05C0EAFFEECFFF
:1002420001F001A402D0010E286F15D020C401F0E4
:100252001F0E01160150000AB7E020C401F01F0E64
:1002620001160150010AB7E020C401F01F0E011669
:100272000150020AB2E049AE07D0280E466E040EC3
:0A028200476E4980020E4A6E12001A
:10028C0020C401F01F0E01160150010A01E08DD0AF
:10029C0004012451000A01E088D02151060A3FE1F3
:1002AC0034D04D50010A17E1600E006E170E016E2E
:1002BC00000E026E120E0026000E0122022200C059
:1002CC0046F001C047F002C048F0090E4A6E000E1D
:1002DC004B6EC00E496E23D04D50010A12E1AB0E8D
:1002EC00006E170E016E000E026E00C046F001C0CB
:1002FC0047F002C048F0210E4A6E000E4B6EC00E45
:10030C00496E0DD0800E496E0AD004012351210A8A
:10031C00C8E02351220AE0E02351230AF3E020C471
:10032C0001F0600E0116050E006E005004E0013263
:10033C00019EFF0FFBD70150010A01E036D022D0FD
:10034C0034D033D0520E466E000E476E010E4A6EFC
:10035C00000E4B6EC10E496E28D0800E496E23C420
:10036C0052F023D0510E466E000E476E010E4A6EAF
:10037C00000E4B6E810E496E18D0800E496E22C451
:10038C0051F013D004012151010ADAE02151090A7C
:10039C00D8E02151020AD6E021510A0ADEE02151AF
:0C03AC00030AE0E021510B0AE8E0120017
:1003B80004012251010A0FE120C401F01F0E0116A9
:1003C8000150000A08E1498E2151030A03E1010E98
:1003D8003F6E01D03F6A2251000AD8A48BD020C4B6
:1003E80001F01F0E01160150020AD8A483D024C4BC
:1003F80001F00F0E01160150000AD8B47BD0498EC7
:1004080024BF16D024C403F00F0E031603C000F057
:10041800000E016E0036009001363B0E0024E96E96
:10042800000E0120EA6EEECF04F0EECF05F015D0F5
:1004380024C403F00F0E031603C000F0000E016E73
:10044800003600900136370E0024E96E000E0120B8
:10045800EA6EEECF04F0EECF05F02151030A07E172
:1004680004C0E1FF05C0E2FF840EE66E43D024C459
:1004780000F00F0E0016700E026E0F0E036E005085
:100488000226D8B0032A02C0E9FF03C0EAFFFE0E25
:10049800EE14006EEECF01F0FF0E011602C0E1FF70
:1004A80003C0E2FF00C0E6FF01C0E6FF24AF11D0A1
:1004B80004C0E1FF05C0E2FFE66A040E0418006EFE
:1004C80000C004F004C0E1FF05C0E2FF400EE66E84
:1004D80011D004C0E1FF05C0E2FF880EE66E040EED
:1004E8000418006E00C004F004C0E1FF05C0E2FF7C
:0604F800C80EE66E1200C2
:1004FE00000E4B5C02E1080E4A5C10E24AC003F0AB
:10050E004BC004F04350000A03E1010E436E05D0C8
:10051E004350010A02E1020E436E04D0080E036E30
:10052E00000E046E37C0E1FF38C0E2FFE69237C01E
:10053E00E1FF38C0E2FFE69037C0E9FF38C0EAFFBE
:10054E00EECF00F037C0E1FF38C0E2FF04500010DC
:10055E00E66E010E3724E16E000E3820E26E03C007
:10056E00E6FF03504A5C006E04504B58016E00C00B
:10057E004AF001C04BF0280E00016B6F040E6C6F39
:10058E0049B02FD0035004102BE046C0F6FF47C0F1
:10059E00F7FF48C0F8FF0900F5CF00F06BC0E1FF90
:1005AE006CC0E2FF00C0E6FF6B4B6C2B010E4624C5
:1005BE00006E000E4720016E000E4820026E00C035
:1005CE0046F001C047F002C048F0010E035C006E19
:1005DE00000E0458016E00C003F001C004F0D2D723
:1005EE0024D00350041021E046C0E9FF47C0EAFFC3
:1005FE006BC0E1FF6CC0E2FFEECFE6FF6B4B6C2BE6
:10060E00010E4624006E000E4720016E00C046F01B
:10061E0001C047F0010E035C006E000E0458016E1F
:0C062E0000C003F001C004F0DCD7120093
:10063A0004012051800AD8A473D0C00E496E65D037
:10064A00CC0E006E170E016E000E026E00C046F050
:10065A0001C047F002C048F0120E4A6E000E4B6EFF
:10066A005FD0030E006E000E016E22C404F0000E6D
:10067A00056E18DD6E0E0024E96E000E0120EA6E8A
:10068A00EECF46F0EECF47F0EECF48F0020E46240A
:10069A00F66E000E4720F76E000E4820F86E09002D
:1006AA00F5CF00F00900F5CF01F000C04AF001C013
:1006BA004BF036D022510001655D23E3030E006E34
:1006CA00000E016E22C404F0000E056EEBDC710E02
:1006DA000024E96E000E0120EA6EEECF46F0EECF5E
:1006EA0047F0EECF48F046C0F6FF47C0F7FF48C0D4
:1006FA00F8FF0900F5CF00F000C04AF0000E4B6E7B
:10070A0001D0496A0DD0496A0BD004012351010A6C
:10071A0097E02351020AA5E02351030ACBE0F3D75D
:02072A001200BB
:10072C00498E716A4E6A22C44DF04D50000A03E1A5
:0E073C00100E4C6E03D0200E4C6EDBDC120053
:10074A00010E00016625E96E000E6721EA6EEECF02
:10075A0000F000C002F0000E605D02E102505F5C32
:10076A0003E25FC002F00AD002505F5C006E000E26
:10077A006059016E00C05FF001C060F0036A025068
:10078A00035C1CE2280EE96E040EEA6E0350E926A9
:10079A00D8B0EA2AEECF00F05CC0E1FF5DC0E2FF0C
:1007AA0000C0E6FF010E5C24006E000E5D20016EA3
:1007BA0000C05CF001C05DF0032AE1D7000E006EB4
:1007CA006051005C02E15F50000828E2010E6825D2
:1007DA00E16E000E6921E26E080EE66E020E6825D1
:1007EA00E16E000E6921E26E280EE66E040EE66ED8
:1007FA0066C0E9FF67C0EAFFEECF00F000BC07D091
:10080A0068C0E1FF69C0E2FFC80EE66E06D068C0A4
:10081A00E1FF69C0E2FF880EE66E19D0010E682575
:10082A00E16E000E6921E26E080EE66E020E682580
:10083A00E16E000E6921E26E200EE66E040EE66E8F
:10084A0068C0E1FF69C0E2FF840EE66E5E9E120098
:10085A00600E00016E6F170E6F6F000E706FE60E5E
:10086A00716F170E726F000E736FDE0E746F170EB4
:10087A00756F000E766F890E776F170E786F000E00
:04088A00796F120070
:0E088E00160E6F6E9F0E6B6E3B0E696E1200A3
:10089C0020C401F0600E0116050E006E005004E03D
:1008AC000132019EFF0FFBD70150000A01E058D026
:1008BC0034D0498E080E4C6E53D0B9DE51D030DF97
:1008CC004FD04D0E466E000E476E4980010E4A6E9B
:1008DC00498E46D070DC44D069DD42D04E0E006E9D
:1008EC00000E016E24510026D8B0012A00C046F03B
:1008FC0001C047F04980010E4A6E498E31D0498EB5
:10090C004E0EE16E000EE26E2451E126D8B0E22AC2
:10091C0022C4E6FF25D024D023D004012151050A9E
:10092C00C8E02151060AC9E02151090AC8E0215149
:10093C00080AC7E02151000ACDE02151010ACCE0A0
:10094C002151030AC9E021510A0AC8E021510B0ABE
:10095C00D6E02151070ADFE021510C0ADDE0DCD79B
:02096C00120077
:0A096E0000016A5301E08BDC120067
:10097800426A37C0E1FF38C0E2FFE66A040E371862
:10098800E16E38C0E2FF000EE21AE66A5EBE5E9EC5
:0209980012004B
:10099A006D9849BE4BD05EAE29D0020E426E010E52
:1009AA003724E16E000E3820E26EE66A37C0E1FFB6
:1009BA0038C0E2FFC80EE66E010E00016825E16E3E
:1009CA00000E6921E26E080EE66E020E6825E16EDF
:1009DA00000E6921E26E280EE66E040EE66E68C00D
:1009EA00E1FF69C0E2FFC80EE66E1FD00001010EEA
:1009FA006825E16E000E6921E26E080EE66E020EAF
:100A0A006825E16E000E6921E26E200EE66E040E84
:100A1A00E66E68C0E1FF69C0E2FF8C0EE66E37C081
:100A2A00E1FF38C0E2FF840EE66E7FD05EBE7DD065
:100A3A00040120AF52D04B50275D02E14A50265D97
:100A4A0004E226C44AF027C44BF054DD010E426E7C
:100A5A00010E00016825E16E000E6921E26E080EA2
:100A6A00E66E020E6825E16E000E6921E26E200E26
:100A7A00E66E040EE66E68C0E1FF69C0E2FF800E12
:100A8A00E66E6D6B010E6625E16E000E6721E26E61
:100A9A00080EE66E020E6625E16E000E6721E26E12
:100AAA00200EE66E040EE66E66C0E1FF67C0E2FF46
:100ABA00840EE66E010E6D6F020E3724E16E000E93
:100ACA003820E26E280EE66E040EE66E37C0E1FFAD
:100ADA0038C0E2FFC80EE66E28D00001020E426E50
:100AEA00010E3724E16E000E3820E26EE66A37C046
:100AFA00E1FF38C0E2FFC80EE66E010E6825E16E1E
:100B0A00000E6921E26E080EE66E020E6825E16E9D
:100B1A00000E6921E26E280EE66E040EE66E68C0CB
:0C0B2A00E1FF69C0E2FFC80EE66E120099
:100B3600040E3718006E00C037F04C50080A0AE160
:100B460022C46EFF6E50000803E2100E4C6E02D0F7
:100B5600040E4C6E4250010A3AE1020E3724E16E51
:100B6600000E3820E26E280EE66E040EE66EC4DC39
:100B76004350020A07E137C0E1FF38C0E2FF840EA6
:100B8600E66E24D0040E3718006E00C037F037C06A
:100B9600E9FF38C0EAFFEECF00F000BC0CD0040E2F
:100BA6003718006E00C037F037C0E1FF38C0E2FFEB
:100BB600C80EE66E0BD0040E3718006E00C037F074
:100BC60037C0E1FF38C0E2FF880EE66E01D0D1DE05
:020BD60012000B
:100BD8006D92699468A403D0FB0E6816FBD71200C7
:100BE80038DE446A456A536A546A6A6A686A4BDE40
:100BF8006D8C6E6A716A6D9C5A6A5B6A000E5B5CEA
:100C080002E1080E5A5C17E25AC000F05BC001F01E
:100C1800003600900136003600900136000E0024A0
:100C2800E16E040E0120E26EE66AE66AE66AE66AAA
:100C38005A4A5B2AE3D7160E706E68A603D0F70EE1
:100C48006816FBD7496A5E6A5F6A606B6D98080E22
:0C0C5800376E040E386E4D6A4C6A1200B4
:0A0C64006984EF0E68166D8212001D
:040C6E00A19A120035
:100C72004250020A02E168DD1FD07DDE00016D51A3
:100C8200000A19E1010E6825E16E000E6921E26E8B
:100C9200080EE66E020E6825E16E000E6921E26E14
:100CA200200EE66E040EE66E68C0E1FF69C0E2FF48
:0A0CB2008C0EE66E01D06D6B12008F
:100CBC0070A019D066C0E9FF67C0EAFFEECF01F063
:100CCC000150800A0FE137C0E9FF38C0EAFFEECFD0
:100CDC0001F00150840A06E166C0E1FF67C0E2FF43
:0C0CEC008C0EE66E7090DF0E6816120091
:100CF80037C0E9FF38C0EAFFEECF00F000AE05D0FC
:100D080037C0E1FF38C0E2FFE66A436A426A4A6ACE
:0C0D18004B6A496ABFDD27DE3CDE12009A
:0A0D2400D08EA28AA08AF28E12007F
:100D2E004C50000A09E16D6A696AAADD6DB602D0FF
:100D3E006D86FCD7010E4C6E4C50010A08E16DBA5F
:100D4E0006D0686A696A69806988020E4C6E68A46A
:100D5E0005D069A403D0FB0E681637DF6DA202D052
:100D6E007FDFD5D068A018D069A016D036DF040E6C
:100D7E004C6E200E0401026F040E036F080E016FFD
:100D8E00000E0015006E00C000F48C0E0011006EF7
:100D9E0000C000F4FE0E681668A805D069A803D03E
:100DAE005ADFEF0E681668AC04D069AC02D0BF0EE5
:100DBE00681668AA03D069AA01D079DF68A202D0AA
:100DCE0069B26A6A040E4C5C02E24ADFA0D069A6E0
:100DDE009DD00001886B040E885DD8B097D068A6B0
:100DEE0091D06CCF59F0F70E6816780E5914016E2B
:100DFE000150000AD8A485D0FD0E5914016E026A66
:100E0E00FF0E0216000E021802E1000E01186BE131
:100E1E007E0E5914016E01C003F00332039E03C00F
:100E2E0000F0000E016E0036009001360036009084
:100E3E000136000E0024026E040E0120036E02C065
:100E4E0066F003C067F002C068F003C069F0040EDC
:100E5E006819006E00C068F002C0E9FF03C0EAFF27
:100E6E00EECF00F000C001F03C0E01160132019EE3
:100E7E000132019E01500D0A34E1020E6625E96E23
:100E8E00000E6721EA6EEECF01F0EECF02F00250B7
:100E9E00040A02E1280E011822E1020E6625E16E17
:100EAE00000E6721E26E200EE66E040EE66E876B74
:100EBE00080E875D14E2200EE16E040EE26E87517D
:100ECE00E126D8B0E22A280EE96E040EEA6E8751AA
:100EDE00E926D8B0EA2AEECFE6FF872BE9D705DF61
:100EEE0001D0C0DE0DD0FD0E5914016E026AFF0E48
:100EFE000216000E021802E1040E011801E114DEC2
:100F0E0000D001D003D00001882B65D7A9DE1200D6
:100F1E0000018851000A12E087C000F0000E016E39
:100F2E00003600900136370E0024E96E000E0120C7
:100F3E00EA6EEECF04F0EECF05F011D087C000F0D0
:100F4E00000E016E0036009001363B0E0024E96E55
:100F5E00000E0120EA6EEECF04F0EECF05F0020E89
:100F6E000424E16E000E0520E26E89C0E6FF8AC001
:100F7E00E6FF010E0424E16E000E0520E26E8BC02A
:100F8E00E6FF04C0E9FF05C0EAFFEECF00F004C0A3
:100F9E00E1FF05C0E2FF400E0014E66E04C0E9FF5B
:100FAE0005C0EAFFEECF00F004C0E1FF05C0E2FF8E
:100FBE00880E0010E66E8851000A1BE087C000F014
:100FCE00000E016E003600900136370E0024026EC0
:100FDE00000E0120036E02C0E9FF03C0EAFF040EFB
:100FEE00EE18006E02C0E1FF03C0E2FF00C0E6FF94
:100FFE001AD087C000F0000E016E00360090013648
:10100E003B0E0024026E000E0120036E02C0E9FFAB
:10101E0003C0EAFF040EEE18006E02C0E1FF03C02B
:10102E00E2FF00C0E6FF04C000F005C001F01200B0
:10103E0000018A6B8B6B8C6B020E8725F66E000E91
:10104E008821F76E000E8921F86E0900F5CF05F0A4
:10105E00030E8725F66E000E8821F76E000E89218D
:10106E00F86E0900F5CF00F000C003F0000E046E1C
:10107E0003C001F0006A05500024066E000E012028
:10108E00076E87C008F088C009F089C00AF0010E0B
:10109E000824F66E000E0920F76E000E0A20F86E78
:1010AE000900F5CF01F00150020A1BE1060E0824DB
:1010BE00F66E000E0920F76E000E0A20F86E09007B
:1010CE00F5CF01F001508A5D0CE2060E0824F66E93
:1010DE00000E0920F76E000E0A20F86E0900F5CFFB
:1010EE008AF0010E0824F66E000E0920F76E000E2F
:1010FE000A20F86E0900F5CF01F00150040A1BE139
:10110E00080E0824F66E000E0920F76E000E0A2057
:10111E00F86E0900F5CF01F001508A5D0CE2080E61
:10112E000824F66E000E0920F76E000E0A20F86EE7
:10113E000900F5CF8AF008C0F6FF09C0F7FF0AC014
:10114E00F8FF0900F5CF00F000508B25016E000E60
:10115E008C21026E01C08BF002C08CF00750025C35
:10116E0002E10650015C01E30FD008C0F6FF09C092
:10117E00F7FF0AC0F8FF0900F5CF00F0005008266F
:0E118E00000E09220A2283D78AC000F0120048
:10119C00CC0E006E170E016E000E026E0E0E0024A9
:1011AC00F66E000E0120F76E000E0220F86E09009C
:1011BC00F5CF03F003C004F00F0E0024F66E000E02
:1011CC000120F76E000E0220F86E0900F5CF01F039
:1011DC000150035C12E2CC0E006E170E016E000E75
:1011EC00026E0F0E0024F66E000E0120F76E000E3C
:1011FC000220F86E0900F5CF04F0CC0E006E170E2D
:10120C00016E000E026E100E0024F66E000E012010
:10121C00F76E000E0220F86E0900F5CF01F00150B8
:10122C00045C12E2CC0E006E170E016E000E026E04
:10123C00100E0024F66E000E0120F76E000E022038
:0E124C00F86E0900F5CF04F004C000F01200A7
:10125A00000E0001881902E1000E871902E1016AF5
:10126A000AD087C0E9FF88C0EAFFEECF00F0000E7F
:0C127A0000BE010E016E01C000F0120069
:101286004C50000A0BE16D6A696A47EC04F047DDD1
:0E1296006DB602D06D86FCD7010E4C6E1200B4
:1012A4000001866B200E4C5C03E36DB201D002D0CA
:1012B400006A2DD044C087F045C088F0CCDF0052CE
:1012C40025E144C084F045C085F0000E451802E1D4
:1012D400000E44180AE0010E8425E96E000E8521F3
:1012E400EA6EEECF00F000C086F083C087F0886B12
:1012F40080C089F081C08AF082C08BF00EDE00C00D
:1013040044F001C045F086C000F001D0006A12002C
:10131400200E4C5C03E36DB201D002D0006A46D0CB
:1013240053C087F054C088F096DF00523EE183C07A
:1013340087F0010E886F80C089F081C08AF082C076
:101344008BF0EBDD00C053F001C054F0556A566ACF
:10135400576A586A53C087F054C088F07CDF005243
:101364000EE0010E016E0150000A01E1DEDC555071
:1013740056105710581002E0006A18D0EBD753C02B
:1013840084F054C085F0000E541802E1000E531886
:101394000AE0010E00018425E96E000E8521EA6E43
:0E13A400EECF00F003D0006A01D0006A120004
:1013B200F4DE00C080F0600E0001876F170E886FA8
:1013C200000E896F3BDE00C081F08051005C03E2B9
:0C13D20080C000F002D081C000F01200CA
:1013DE00E9DF00C065F0010E6A6F7BC040F07CC093
:1013EE0041F07DC04FF07EC050F0F4EC05F0010EE0
:0C13FE00016E0150010A01E13FDF120006
:10140A000900F5CFE6FF0006FBE10106F9E112004B
:10141A004C50010A07E16DBA05D0686A698069888B
:10142A00020E4C6E68A406D069A404D0FB0E68169E
:10143A00ECEC05F06DA202D015DCDCD068A019D066
:10144A0069A017D0F4EC05F0040E4C6E200E0401CE
:10145A00026F040E036F080E016F000E0015006E76
:10146A0000C000F48C0E0011006E00C000F4FE0EE5
:10147A00681668A806D069A804D032EC06F0EF0E08
:10148A00681668AC04D069AC02D0BF0E681668AAA8
:10149A0003D069AA01D00DDC68A202D069B26A6AD7
:1014AA00040E4C5C03E237EC06F0A4D069A6A0D087
:1014BA0000018E6B040E8E5DD8B09AD068A694D0C7
:1014CA006CCF59F0F70E6816780E5914016E015058
:1014DA00000AD8A488D0FD0E5914016E026AFF0EC4
:1014EA000216000E021802E1000E01186DE17E0ECE
:1014FA005914016E01C003F00332039E03C000F0C9
:10150A00000E016E0036009001360036009001365A
:10151A00000E0024026E040E0120036E02C066F063
:10152A0003C067F002C068F003C069F0040E6819CE
:10153A00006E00C068F002C0E9FF03C0EAFFEECF08
:10154A0000F000C001F03C0E01160132019E01328A
:10155A00019E01500D0A35E1020E6625E96E000E64
:10156A006721EA6EEECF01F0EECF02F00250040AD4
:10157A0002E1280E011822E1020E6625E16E000E34
:10158A006721E26E200EE66E040EE66E8D6B080E83
:10159A008D5D14E2200EE16E040EE26E8D51E1269D
:1015AA00D8B0E22A280EE96E040EEA6E8D51E926B9
:1015BA00D8B0EA2AEECFE6FF8D2BE9D77CEC06F00D
:1015CA0002D039EC06F00ED0FD0E5914016E026AF3
:1015DA00FF0E0216000E021802E1040E011802E1C3
:1015EA009BEC05F000D001D003D000018E2B62D70E
:0615FA0037EC06F01200C0
:1016000040C080F041C081F0400E0001826F010EA9
:06161000836F48DE1200AA
:101616007FC000F000017F07005228E07BC0E9FF91
:101626007CC0EAFFEE50000A0CE07BC0E9FF7CC0FC
:10163600EAFF7DC0D9FF7EC0DAFFEE50DE1801E179
:101646000FD07BC0E9FF7CC0EAFF7DC0D9FF7EC01A
:10165600DAFFDE50EE5C006E016A000E015A08D019
:1016660000017B4B7C2B7D4B7E2BD2D7006A016A17
:02167600120060
:101678007BC080F07CC081F07DC082F0010E00014B
:06168800836F44DE120036
:10168E00460E296E610E2A6E690E2B6E6C0E2C6E36
:10169E002D6A530E2E6E750E2F6E630E306E650E06
:1016AE00316E730E326E730E336E346A410E356EBA
:1016BE00366A000E00017B6F050E7C6F400E7D6F4B
:1016CE00050E7E6F85DE95DF005201E1FCD7400EE0
:1016DE00E16E050EE26E7A51E126D8B0E22A000ED6
:1016EE00E96E050EEA6E7A51E926D8B0EA2AEECFF7
:1016FE00E6FF0001400E7B6F050E7C6F400E7D6F86
:10170E00B4DF005201E1F5D7000E00017B6F050E2C
:10171E007C6F350E7D6F000E7E6F010E7F6F74DF56
:10172E00000E011802E1000E001809E12E0E000154
:10173E007B6F000E7C6F400E7D6F97DF08D0290EF9
:10174E0000017B6F000E7C6F400E7D6F8EDFBBD76E
:02175E00FFD7B3
:10176000090229000101008032090400000203007F
:101770000000092101010001222100070581034029
:091780000001070501034000010E
:10178900220353004E0054002D005500530042001F
:101799002D005000490043004D00690063007200AC
:0217A9006F00CF
:1017AB000600FF0901A10119012940150026FF00C0
:1017BB0075089540810219012940750895409102E1
:0117CB00C05D
:1017CC0012010002000000083412010001000102A5
:0217DC0000010A
:0817DE00080353004E00540003
:0417E60004030904EB
:020000040030CA
:0E000000240E1F1EFF8381FF0FC00FE00F4074
:00000001FF
