:020000004A288C
:06000600000000000800EC
:0C000C0083120E088A000D088200080014
:1000180083128F0191019201103093000430120273
:1000280003183728F030860013098316860003204A
:1000380003200F3083120605C000400890004008D6
:100048000319312811088F00100803192F28900C64
:1000580090138F0A282804309200930D131004304F
:0C0068009107920A12280F08C00008003F
:1000740006208A110A128000840A8D0A03198E0A46
:08008400C003031D3A28080027
:08008C00FF3083168600080016
:1000940083128C01831685018312850146200C206E
:1000A40040088C004008033C031C5A280C088500B7
:1000B4000C08033C031864280C08073C031C642840
:1000C4000C0385000C08083C03186F280C080B3C33
:0E00D400031C6F2802300C0285005128702892
:02400E00FA3F77
:00000001FF
