:020000003028A6
:0E0006008312031321088A00200882000800DC
:10001400831603139816903083129800831687175B
:10002400071383128C1E19281A08F00013280800DD
:10003400831603139818202800001A288312220814
:040044009900080017
:1000480003208A110A128000840AA00A0319A10A4F
:08005800F003031D2428080039
:10006000FF30831603138600831286013330831614
:10007000990018150A200230FB000430FC00BA3049
:10008000FD00FD0B4128FC0B4128FB0B4128000023
:100090000608A2001A200630FB001330FC00AD3029
:1000A000FD00FD0B5128FC0B5128FB0B51280000D3
:0600B000000048285A2858
:02400E004A2F37
:00000001FF
