:04000000A4EF0BF06E
:1000080000C01EF001C01DF002C01CF003C01BF0B0
:1000180004C01AF005C019F008C018F009C017F09C
:100028000AC016F00BC015F0E1CF27F0E2CF28F098
:10003800E9CF25F0EACF26F0F3CF23F0F4CF24F070
:10004800F5CF22F0F8CF1FF0F7CF20F0F6CF21F050
:100058002FEC0AF022C0F5FF1FC0F8FF20C0F7FF01
:1000680021C0F6FF23C0F3FF24C0F4FF1EC000F038
:100078001DC001F01CC002F01BC003F01AC004F040
:1000880019C005F018C008F017C009F016C00AF02A
:1000980015C00BF025C0E9FF26C0EAFF27C0E1FF25
:0600A80028C0E2FF110078
:1000AE001E0E716E100E0001656F040E666F65C038
:1000BE00E1FF66C0E2FFE69E65C0E1FF66C0E2FFBB
:1000CE00E69C040E6525E16E000E6621E26EE68C5E
:1000DE00180E5B6E040E5C6E5BC0E1FF5CC0E2FF4F
:1000EE00E69E5BC0E1FF5CC0E2FFE69C040E5B2473
:1000FE00E16E000E5C20E26EE68C020E6525E16E6E
:10010E00000E6621E26E5DC0E6FF5EC0E6FF010EE8
:10011E006525E16E000E6621E26E400EE66E65C04C
:10012E00E9FF66C0EAFFEECF00F065C0E1FF66C0F2
:10013E00E2FF400E0014E66E65C0E9FF66C0EAFFFE
:10014E00EECF00F065C0E1FF66C0E2FF880E001042
:10015E00E66E65C051F066C052F0040E6519006E71
:06016E0000C065F0120064
:100174000B6A0A6A096A00500402F4CF09F0F3CF4B
:1001840008F001500502F4CF0BF0F3CF0AF0005051
:100194000502F3500926F4500A22E86A0B220150A2
:1001A4000402F3500926F4500A22E86A0B2208C01C
:1001B40000F009C001F00AC002F00BC003F0120005
:1001C4000401286B296B47D00401568E2881000155
:1001D4008351010A02E10401288352D0568E50D083
:1001E4000401568E24BF16D024C403F00F0E031648
:1001F40003C000F0000E016E003600900136630E5D
:100204000024E96E000E0120EA6EEECF04F0EECF7A
:1002140005F015D024C403F00F0E031603C000F03C
:10022400000E016E003600900136590E0024E96E6E
:10023400000E0120EA6EEECF04F0EECF05F004C00C
:10024400E9FF05C0EAFFEECF01F001A403D00401E9
:10025400010E286F15D020C401F01F0E01160150A5
:10026400000AB2E020C401F01F0E01160150010A79
:10027400B5E020C401F01F0E01160150020AB0E0DF
:1002840056AE07D0280E536E040E546E5680020EDE
:04029400576E12008F
:1002980004012251010A11E120C401F01F0E0116C8
:1002A8000150000A0AE1568E2151030A04E1010EA9
:1002B8000001836F02D00001836B04012251000A00
:1002C800D8A48BD020C401F01F0E01160150020AD9
:1002D800D8A483D024C401F00F0E01160150000ADF
:1002E800D8B47BD0568E24BF16D024C403F00F0E8A
:1002F800031603C000F0000E016E003600900136B0
:10030800630E0024E96E000E0120EA6EEECF04F0C1
:10031800EECF05F015D024C403F00F0E031603C06A
:1003280000F0000E016E003600900136590E0024D0
:10033800E96E000E0120EA6EEECF04F0EECF05F074
:100348002151030A07E104C0E1FF05C0E2FF840E62
:10035800E66E43D024C400F00F0E0016700E026E35
:100368000F0E036E00500226D8B0032A02C0E9FF20
:1003780003C0EAFFFE0EEE14006EEECF01F0FF0E92
:10038800011602C0E1FF03C0E2FF00C0E6FF01C0A2
:10039800E6FF24AF11D004C0E1FF05C0E2FFE66A22
:1003A800040E0418006E00C004F004C0E1FF05C08C
:1003B800E2FF400EE66E11D004C0E1FF05C0E2FF87
:1003C800880EE66E040E0418006E00C004F004C027
:0C03D800E1FF05C0E2FFC80EE66E120057
:1003E40004012051800AD8A473D0C00E566E65D083
:1003F400920E006E190E016E000E026E00C053F0D4
:1004040001C054F002C055F0120E576E000E586E23
:100414005FD0030E006E000E016E22C404F0000EC5
:10042400056EA6DE880E0024E96E000E0120EA6E39
:10043400EECF53F0EECF54F0EECF55F0020E53242E
:10044400F66E000E5420F76E000E5520F86E09006B
:10045400F5CF00F00900F5CF01F000C057F001C05E
:1004640058F036D022510001755D23E3030E006E6F
:10047400000E016E22C404F0000E056E79DE8B0EB0
:100484000024E96E000E0120EA6EEECF53F0EECFA9
:1004940054F0EECF55F053C0F6FF54C0F7FF55C0EB
:1004A400F8FF0900F5CF00F000C057F0000E586EB9
:1004B40001D0566A0DD0566A0BD004012351010AAB
:1004C40097E02351020AA5E02351030ACBE0F3D7B6
:0204D400120014
:1004D600568E716A0001616B22C462F06251000A95
:1004E60003E1100E5F6E03D0200E5F6EDDDD12009D
:1004F60020C401F01F0E01160150010A01E08FD041
:1005060004012451000A01E08AD02151060A41E182
:1005160036D000016251010A17E1FE0E006E180E78
:10052600016E000E026E120E0026000E012202223D
:1005360000C053F001C054F002C055F0090E576ECA
:10054600000E586EC00E566E24D000016251010A8C
:1005560012E1710E006E190E016E000E026E00C0E1
:1005660053F001C054F002C055F0210E576E000E34
:10057600586EC00E566E0DD0800E566E0AD004010F
:100586002351210AC6E02351220ADFE02351230A20
:10059600F3E020C401F0600E0116050E006E005057
:1005A60004E00132019EFF0FFBD70150010A01E072
:1005B60036D022D034D033D06B0E536E000E546E2C
:1005C600010E576E000E586EC10E566E28D0800E64
:1005D600566E23C46BF023D0670E536E000E546E16
:1005E600010E576E000E586E810E566E18D0800E94
:1005F600566E22C467F013D004012151010ADAE0D5
:100606002151090AD8E02151020AD6E021510A0AED
:10061600DEE02151030AE0E021510B0AE8E0120076
:10062600000E585C02E1080E575C11E257C003F059
:1006360058C004F000016051000A03E1010E606F2A
:1006460005D06051010A02E1020E606F04D0080E67
:10065600036E000E046E000159C0E1FF5AC0E2FFAE
:10066600E69259C0E1FF5AC0E2FFE69059C0E9FFA1
:100676005AC0EAFFEECF00F059C0E1FF5AC0E2FFD0
:1006860004500010E66E010E5924E16E000E5A2049
:10069600E26E03C0E6FF0350575C006E04505858E4
:1006A600016E00C057F001C058F0280E866F040E88
:1006B600876F56B02FD0035004102BE053C0F6FFBF
:1006C60054C0F7FF55C0F8FF0900F5CF00F086C00B
:1006D600E1FF87C0E2FF00C0E6FF864B872B010ED5
:1006E6005324006E000E5420016E000E5520026E3B
:1006F60000C053F001C054F002C055F0010E035C77
:10070600006E000E0458016E00C003F001C004F034
:10071600D2D724D00350041021E053C0E9FF54C0BF
:10072600EAFF86C0E1FF87C0E2FFEECFE6FF864B19
:10073600872B010E5324006E000E5420016E00C05C
:1007460053F001C054F0010E035C006E000E045815
:0E075600016E00C003F001C004F0DCD71200F9
:1007640020C401F0600E0116050E006E005004E076
:100774000132019EFF0FFBD70150000A01E059D05E
:1007840035D0568E080E5F6E54D02ADE52D0A1DECC
:1007940050D0620E536E000E546E5680010E576E8A
:1007A400568E47D00DDD45D075DD43D0610E006E09
:1007B400000E016E040124510026D8B0012A00C0A5
:1007C40053F001C054F05680010E576E568E31D04E
:1007D400568E610EE16E000EE26E2451E126D8B011
:1007E400E22A22C4E6FF25D024D023D004012151DB
:1007F400050AC7E02151060AC8E02151090AC7E0E9
:100804002151080AC6E02151000ACCE02151010A15
:10081400CBE02151030AC8E021510A0AC7E0215163
:100824000B0AD6E02151070ADFE021510C0ADDE072
:04083400DCD71200FB
:0A08380000016A5301E05BDE1200CC
:0E084200160E6F6E9F0E6B6E3B0E696E1200EF
:10085000010E00017825E96E000E7921EA6EEECFD7
:1008600000F000C002F0000E7E5D02E102507D5DEE
:1008700003E27DC002F00AD002507D5D006E000EE2
:100880007E59016E00C07DF001C07EF0036A025007
:10089000035C1CE2280EE96E040EEA6E0350E926A2
:1008A000D8B0EA2AEECF00F07AC0E1FF7BC0E2FFC9
:1008B00000C0E6FF010E7A25006E000E7B21016E5E
:1008C00000C07AF001C07BF0032AE1D7000E006E71
:1008D0007E51005C02E17D51000828E2010E842572
:1008E000E16E000E8521E26E080EE66E020E842592
:1008F000E16E000E8521E26E280EE66E040EE66EB5
:1009000078C0E9FF79C0EAFFEECF00F000BC07D065
:1009100084C0E1FF85C0E2FFC80EE66E06D084C049
:10092000E1FF85C0E2FF880EE66E19D0010E842536
:10093000E16E000E8521E26E080EE66E020E842541
:10094000E16E000E8521E26E200EE66E040EE66E6C
:1009500084C0E1FF85C0E2FF840EE66E7C9F12003A
:100960006D9856BE4AD000017CAF28D0020E776F3A
:10097000010E5924E16E000E5A20E26EE66A59C05B
:10098000E1FF5AC0E2FFC80EE66E010E8425E16E5B
:10099000000E8521E26E080EE66E020E8425E16EE1
:1009A000000E8521E26E280EE66E040EE66E84C00F
:1009B000E1FF85C0E2FFC80EE66E1ED0010E842561
:1009C000E16E000E8521E26E080EE66E020E8425B1
:1009D000E16E000E8521E26E200EE66E040EE66EDC
:1009E00084C0E1FF85C0E2FF8C0EE66E59C0E1FFD6
:1009F0005AC0E2FF840EE66E80D000017CBF7DD03D
:100A0000040120AF52D05850275D02E15750265DB7
:100A100004E226C457F027C458F005DE010E000199
:100A2000776F010E8425E16E000E8521E26E080EBF
:100A3000E66E020E8425E16E000E8521E26E200E28
:100A4000E66E040EE66E84C0E1FF85C0E2FF800E14
:100A5000E66E766B010E7825E16E000E7921E26E6E
:100A6000080EE66E020E7825E16E000E7921E26E28
:100A7000200EE66E040EE66E78C0E1FF79C0E2FF5C
:100A8000840EE66E010E766F020E5924E16E000EA2
:100A90005A20E26E280EE66E040EE66E59C0E1FFA3
:100AA0005AC0E2FFC80EE66E28D00001020E776F32
:100AB000010E5924E16E000E5A20E26EE66A59C01A
:100AC000E1FF5AC0E2FFC80EE66E010E8425E16E1A
:100AD000000E8521E26E080EE66E020E8425E16EA0
:100AE000000E8521E26E280EE66E040EE66E84C0CE
:0C0AF000E1FF85C0E2FFC80EE66E1200B8
:100AFC000001776B59C0E1FF5AC0E2FFE66A040EB1
:100B0C005918E16E5AC0E2FF000EE21AE66A7CAF99
:060B1C0001D07C9F1200D5
:100B2200FE0E0001886F180E896F000E8A6FAC0EE0
:100B32008B6F190E8C6F000E8D6FA40E8E6F190EB7
:100B42008F6F000E906F4F0E916F190E926F000E05
:040B5200936F12008B
:100B560070A019D078C0E9FF79C0EAFFEECF01F0A6
:100B66000150800A0FE159C0E9FF5AC0EAFFEECFF3
:100B760001F00150840A06E178C0E1FF79C0E2FF86
:0C0B86008C0EE66E7090DF0E68161200F8
:100B92006D92699468A403D0FB0E6816FBD712000D
:0A0BA2006984EF0E68166D821200E0
:100BAC00BADF516A526A716B726B6A6A686A43DEA9
:100BBC006D8C6E6A716A6D9C736B746B000E745DD8
:100BCC0002E1080E735D17E273C000F074C001F00F
:100BDC00003600900136003600900136000E0024DD
:100BEC00E16E040E0120E26EE66AE66AE66AE66AE7
:100BFC00734B742BE3D7160E706E68A603D0F70EEA
:100C0C006816FBD7566A7C6B7D6B7E6B6D98080EF5
:0C0C1C00596E040E5A6E626B5F6A120083
:100C2800040E5918006E00C059F05F50080A0AE116
:100C380022C46EFF6E50000803E2100E5F6E02D0F1
:100C4800040E5F6E00017751010A3BE1020E592440
:100C5800E16E000E5A20E26E280EE66E040EE66E75
:100C6800DEDC00016051020A07E159C0E1FF5AC009
:100C7800E2FF840EE66E24D0040E5918006E00C000
:100C880059F059C0E9FF5AC0EAFFEECF00F000BCA6
:100C98000CD0040E5918006E00C059F059C0E1FF7D
:100CA8005AC0E2FFC80EE66E0BD0040E5918006E4B
:100CB80000C059F059C0E1FF5AC0E2FF880EE66E45
:060CC80001D018DF12004C
:040CCE00A19A1200D5
:100CD20059C0E9FF5AC0EAFFEECF00F000AE05D0DE
:100CE20059C0E1FF5AC0E2FFE66A0001606B776B10
:0E0CF200576A586A566A35DD9EDD31DE120003
:100D000000017751020A02E1A3DD1ED0F7DE765121
:100D1000000A19E1010E8425E16E000E8521E26EC4
:100D2000080EE66E020E8425E16E000E8521E26E4D
:100D3000200EE66E040EE66E84C0E1FF85C0E2FF81
:0A0D40008C0EE66E01D0766B1200F7
:100D4A005F50000A09E16D6A696A76DD6DB602D004
:100D5A006D86FCD7010E5F6E5F50010A08E16DBA1D
:100D6A0006D0686A696A69806988020E5F6E68A43B
:100D7A0005D069A403D0FB0E681606DF6DA202D067
:100D8A00A1DFD5D068A018D069A016D00ADF040E5A
:100D9A005F6E200E0401026F040E036F080E016FCE
:100DAA00000E0015006E00C000F48C0E0011006EDB
:100DBA0000C000F4FE0E681668A805D069A803D022
:100DCA00EBDEEF0E681668AC04D069AC02D0BF0E39
:100DDA00681668AA03D069AA01D0B8DE68A202D050
:100DEA0069B26A6A040E5F5C02E26CDFA0D069A68F
:100DFA009DD00001A26B040EA25DD8B097D068A660
:100E0A0091D06CCF6CF0F70E6816780E6C15016EE7
:100E1A000150000AD8A485D0FD0E6C15016E026A35
:100E2A00FF0E0216000E021802E1000E01186BE115
:100E3A007E0E6C15016E01C003F00332039E03C0DF
:100E4A0000F0000E016E0036009001360036009068
:100E5A000136000E0024026E040E0120036E02C049
:100E6A0078F003C079F002C084F003C085F0040E64
:100E7A008419006E00C084F002C0E9FF03C0EAFFD3
:100E8A00EECF00F000C001F03C0E01160132019EC7
:100E9A000132019E01500D0A34E1020E7825E96EF5
:100EAA00000E7921EA6EEECF01F0EECF02F0025089
:100EBA00040A02E1280E011822E1020E7825E16EE9
:100ECA00000E7921E26E200EE66E040EE66EA16B2C
:100EDA00080EA15D14E2200EE16E040EE26EA1512D
:100EEA00E126D8B0E22A280EE96E040EEA6EA15174
:100EFA00E926D8B0EA2AEECFE6FFA12BE9D7E4DE4D
:100F0A0001D0F9DE0DD0FD0E6C15016E026AFF0EDE
:100F1A000216000E021802E1040E011801E17FDE3A
:100F2A0000D001D003D00001A22B65D7CBDE12007E
:100F3A000001A251000A12E0A1C000F0000E016EE9
:100F4A00003600900136590E0024E96E000E012089
:100F5A00EA6EEECF04F0EECF05F011D0A1C000F09A
:100F6A00000E016E003600900136630E0024E96E11
:100F7A00000E0120EA6EEECF04F0EECF05F0020E6D
:100F8A000424E16E000E0520E26EA3C0E6FFA4C0B1
:100F9A00E6FF010E0424E16E000E0520E26EA5C0F4
:100FAA00E6FF04C0E9FF05C0EAFFEECF00F004C087
:100FBA00E1FF05C0E2FF400E0014E66E04C0E9FF3F
:100FCA0005C0EAFFEECF00F004C0E1FF05C0E2FF72
:100FDA00880E0010E66EA251000A1BE0A1C000F0C4
:100FEA00000E016E003600900136590E0024026E82
:100FFA00000E0120036E02C0E9FF03C0EAFF040EDF
:10100A00EE18006E02C0E1FF03C0E2FF00C0E6FF77
:10101A001AD0A1C000F0000E016E00360090013611
:10102A00630E0024026E000E0120036E02C0E9FF67
:10103A0003C0EAFF040EEE18006E02C0E1FF03C00F
:10104A00E2FF00C0E6FF04C000F005C001F0120094
:10105A00000E0001A21902E1000EA11902E1016AC3
:10106A000AD0A1C0E9FFA2C0EAFFEECF00F0000E4D
:0C107A0000BE010E016E01C000F012006B
:0A108600D08EA28AA08AF28E12001A
:101090000001A46BA56BA66B020EA125F66E000ED7
:1010A000A221F76E000EA321F86E0900F5CF05F01E
:1010B000030EA125F66E000EA221F76E000EA321ED
:1010C000F86E0900F5CF00F000C003F0000E046ECA
:1010D00003C001F0006A05500024066E000E0120D6
:1010E000076EA1C008F0A2C009F0A3C00AF0010E6B
:1010F0000824F66E000E0920F76E000E0A20F86E26
:101100000900F5CF01F00150020A1BE1060E082488
:10111000F66E000E0920F76E000E0A20F86E090028
:10112000F5CF01F00150A45D0CE2060E0824F66E26
:10113000000E0920F76E000E0A20F86E0900F5CFA8
:10114000A4F0010E0824F66E000E0920F76E000EC2
:101150000A20F86E0900F5CF01F00150040A1BE1E6
:10116000080E0824F66E000E0920F76E000E0A2005
:10117000F86E0900F5CF01F00150A45D0CE2080EF5
:101180000824F66E000E0920F76E000E0A20F86E95
:101190000900F5CFA4F008C0F6FF09C0F7FF0AC0A8
:1011A000F8FF0900F5CF00F00050A525016E000EF4
:1011B000A621026E01C0A5F002C0A6F00750025C95
:1011C00002E10650015C01E30FD008C0F6FF09C040
:1011D000F7FF0AC0F8FF0900F5CF00F0005008261D
:0E11E000000E09220A2283D7A4C000F01200DC
:1011EE00920E006E190E016E000E026E0E0E00248F
:1011FE00F66E000E0120F76E000E0220F86E09004A
:10120E00F5CF03F003C004F00F0E0024F66E000EAF
:10121E000120F76E000E0220F86E0900F5CF01F0E6
:10122E000150035C12E2920E006E190E016E000E5A
:10123E00026E0F0E0024F66E000E0120F76E000EE9
:10124E000220F86E0900F5CF04F0920E006E190E12
:10125E00016E000E026E100E0024F66E000E0120BE
:10126E00F76E000E0220F86E0900F5CF01F0015066
:10127E00045C12E2920E006E190E016E000E026EEA
:10128E00100E0024F66E000E0120F76E000E0220E6
:0E129E00F86E0900F5CF04F004C000F0120055
:1012AC00086A080E0C6E003408360450085ED8B07C
:0E12BC0002D00826D89000360C2EF5D712006E
:1012CA0091DF00C09AF0FE0E0001A16F180EA26F06
:1012DA00000EA36FD8DE00C09BF09A51005C03E2B7
:0C12EA009AC000F002D09BC000F012007F
:1012F6005F50000A0BE16D6A696A21EC04F0C0DEFA
:0E1306006DB602D06D86FCD7010E5F6E120030
:10131400200E5F5C03E36DB201D002D0006A46D0B8
:1013240071C0A1F072C0A2F096DE00523EE19DC0F1
:10133400A1F0010EA26F9AC0A3F09BC0A4F09CC0C0
:10134400A5F0F9DD00C071F001C072F06D6B6E6B39
:101354006F6B706B71C0A1F072C0A2F07CDE0052A2
:101364000FE0010E016E0150000A01E1ECDC000106
:101374006D516E116F11701102E0006A17D0EAD737
:1013840071C09EF072C09FF0000E721902E1000E4F
:10139400711909E0010E9E25E96E000E9F21EA6E87
:0E13A400EECF00F003D0006A01D0006A120004
:1013B2000001A06B200E5F5C03E36DB201D002D08E
:1013C200006A2DD051C0A1F052C0A2F045DE0052F9
:1013D20025E151C09EF052C09FF0000E521802E16A
:1013E200000E51180AE0010E9E25E96E000E9F21A3
:1013F200EA6EEECF00F000C0A0F09DC0A1F0A26B9B
:101402009AC0A3F09BC0A4F09CC0A5F095DD00C0DB
:1014120051F001C052F0A0C000F001D0006A1200E9
:101422000900F5CFE6FF0006FBE10106F9E1120033
:101432004BDF00C075F0010E6A6F94C05DF095C07D
:101442005EF096C068F097C069F0D6EC05F0010E28
:0C145200016E0150010A01E14DDF1200A3
:10145E005F50010A07E16DBA05D0686A6980698834
:10146E00020E5F6E68A406D069A404D0FB0E681647
:10147E00C9EC05F06DA202D023DCDDD068A019D036
:10148E0069A017D0D6EC05F0040E5F6E200E040195
:10149E00026F040E036F080E016F000E0015006E32
:1014AE0000C000F48C0E0011006E00C000F4FE0EA1
:1014BE00681668A806D069A804D0D1EC05F0EF0E26
:1014CE00681668AC04D069AC02D0BF0E681668AA64
:1014DE0004D069AA02D0ABEC05F068A202D069B2C2
:1014EE006A6A040E5F5C03E267EC06F0A4D069A69C
:1014FE00A0D00001A86B040EA85DD8B09AD068A643
:10150E0094D06CCF6CF0F70E6816780E6C15016ED9
:10151E000150000AD8A488D0FD0E6C15016E026A27
:10152E00FF0E0216000E021802E1000E01186DE108
:10153E007E0E6C15016E01C003F00332039E03C0D4
:10154E0000F0000E016E003600900136003600905D
:10155E000136000E0024026E040E0120036E02C03E
:10156E0078F003C079F002C084F003C085F0040E59
:10157E008419006E00C084F002C0E9FF03C0EAFFC8
:10158E00EECF00F000C001F03C0E01160132019EBC
:10159E000132019E01500D0A35E1020E7825E96EE9
:1015AE00000E7921EA6EEECF01F0EECF02F002507E
:1015BE00040A02E1280E011822E1020E7825E16EDE
:1015CE00000E7921E26E200EE66E040EE66EA76B1B
:1015DE00080EA75D14E2200EE16E040EE26EA75116
:1015EE00E126D8B0E22A280EE96E040EEA6EA75163
:1015FE00E926D8B0EA2AEECFE6FFA72BE9D769ECA9
:10160E0006F002D080EC06F00ED0FD0E6C15016EC9
:10161E00026AFF0E0216000E021802E1040E0118F5
:10162E0002E114EC06F000D001D003D00001A82B8B
:08163E0062D767EC06F0120010
:1016460094C09AF095C09BF096C09CF0010E0001E4
:061656009D6F5DDE120035
:10165C005DC09AF05EC09BF0400E00019C6F010EC5
:06166C009D6FA1DE1200DB
:1016720098C000F000019807005228E094C0E9FFEA
:1016820095C0EAFFEE50000A0CE094C0E9FF95C055
:10169200EAFF96C0D9FF97C0DAFFEE50DE1801E1EB
:1016A2000FD094C0E9FF95C0EAFF96C0D9FF97C05A
:1016B200DAFFDE50EE5C006E016A000E015A08D0BD
:1016C2000001944B952B964B972BD2D7006A016A57
:0216D200120004
:1016D4000001976B030E975D0AE297519525E16E21
:1016E400000E9621E26E200EE66E972BF3D79751EB
:1016F4009525E16E000E9621E26EE66A97079751F2
:101704009525986F000E9621996F0A0E046E94C069
:1017140000F0CADD08C000F0300E002698C0E1FFDA
:1017240099C0E2FF00C0E6FF0A0E046E94C000F008
:10173400BBDD00C094F00050000A01E102D097071D
:04174400DED71200DA
:10174800D8EC0CF0956AFF0E936E000E0001946FB2
:10175800050E956F400E966F050E976F66DE7ADF61
:10176800005201E1FCD7000E946F050E956F450EEF
:10177800966F000E976F060E986F77DF000E0118B0
:1017880002E1000E00180FE183CF94F0400E000133
:10179800956F050E966F9ADF400E946F050E956F44
:1017A800400E966F4CDF05010151820A0AE1010ED5
:1017B800416F400E0001946F050E956F400E966FB5
:1017C8003EDF000E0001946F050E956F4D0E966F6B
:1017D800000E976F030E986F48DF000E011802E1A4
:1017E800000E0018D8B48380000E0001946F050E17
:1017F800956F310E966F000E976F030E986F35DF59
:10180800000E011802E1000E0018D8B48390000EF3
:101818000001946F050E956F350E966F000E976F49
:10182800030E986F22DF000E011802E1000E001867
:10183800D8B48382000E0001946F050E956F290EAF
:10184800966F000E976F030E986F0FDF000E01184A
:1018580002E1000E0018D8B48392000E0001946FC4
:10186800050E956F2D0E966F000E976F030E986FED
:10187800FCDE000E011802E1000E0018D8B48386C1
:10188800000E0001946F050E956F3D0E966F000EC9
:10189800976F030E986FE9DE000E011802E1000E43
:1018A8000018D8B48396000E0001946F050E956F4A
:1018B800410E966F000E976F030E986FD6DE000EDE
:1018C800011802E1000E0018D8B48386000E00014A
:1018D800946F050E956F390E966F000E976F030E75
:1018E800986FC3DE000E011802E1000E0018D8B48C
:0618F800839635D7FFD7EF
:1019B00010EE29F0280E006E010E016E270EF66E55
:0E19C000190EF76E000EF86E11EC0AF0120010
:1018FE0009022900010100803209040000020300E0
:10190E000000092101010001222100070581034089
:09191E000001070501034000016E
:04192700423D30000D
:04192B00433D310007
:04192F00413D300006
:04193300423D310000
:04193700443D3000FB
:04193B00433D3000F8
:04193F00443D3100F2
:08194300506F7274443D3F0037
:04194B00413D3100E9
:10194F00220353004E0054002D0055005300420057
:10195F002D005000490043004D00690063007200E4
:02196F006F0007
:101971000600FF0901A10119012940150026FF00F8
:101981007508954081021901294075089540910219
:01199100C095
:1019920012010002000000083412010001000102DD
:0219A200000142
:0819A400080353004E0054003B
:0419AC000403090423
:020000040030CA
:0E000000240E1F1EFF8381FF0FC00FE00F4074
:00000001FF
