:02000000C62810
:0E0006000030831203138C1A0130F000080042
:10001400831203131A08F100981C122818121816D8
:060024007108F000080065
:0E002A00831203134D088A004C088200080060
:10003800831603139818222800001C2883125408DA
:040048009900080013
:10004C0083120313D0014E0884000008CF004F0820
:10005C00003A03193B284F08D4001C20D00A500842
:0C006C004E0784000008CF002D2808007B
:10007800831203135008F000D00370080319642892
:100088004E0884000008003A031955284F088400D8
:100098000008F1004E08840000087106031D552869
:1000A80061284E0884000008F0004F08840000080A
:1000B800F002F101031CF1036628CE0ACF0A3C289E
:0600C800F001F101080047
:1000CE0015208A110A128000840ACC0A0319CD0A5F
:0800DE00F003031D6728080070
:1000E60083120313D201D30150080319B228500812
:1000F600FF3A03197F28D00303207008003A031D36
:1001060085287F280A207008D10052084E078400EF
:1001160070088000D20A53084F0784000008510671
:10012600031D9728D30A9F28D3014F08840000088F
:100136005106031D9F28D30A53084F078400000861
:10014600003A031DB12853085202F000F101031CC6
:10015600F10370084E0784008001B52877284E0801
:0601660084008001080086
:10016C008316031398169030831298008316871702
:10017C00071383128C1EC5281A08F000BF2808002C
:10018C007421831603138801831288018316860158
:10019C00831286018130831699001815B62003301E
:1001AC00FB008A30FC005530FD00FD0BDB28FC0BFE
:1001BC00DB28FB0BDB28000000003930CE002620AA
:1001CC000D30FB00AF30FC00B630FD00FD0BEC2811
:1001DC00FC0BEC28FB0BEC28000003207008031927
:1001EC0041292030CE003430CF000A30D0007320AB
:1001FC000330FB008A30FC005530FD00FD0B042958
:10020C00FC0B0429FB0B0429000000002030CE005D
:10021C0026202030CE003630CF000630D0003C20D7
:10022C0000307106031D1C2900307006031D302997
:10023C00013086008801FE30FB00A730FC006530E1
:10024C00FD00FD0B2729FC0B2729FB0B27290000A0
:10025C0000004129860101308800FE30FB00A730E8
:10026C00FC006530FD00FD0B3929FC0B3929FB0B1B
:0A027C00392900000000F328422990
:1002E800203084002C3083120313F0004830CC00F7
:0802F8000130CD006720080071
:1002900000340034003400340034003400340034BE
:1002A00000340034003400340034003400340034AE
:0802B000003400340034003476
:0402B8000A340034D0
:0602BC004F344B34003406
:1002C20053347434613472347434203452345334B9
:1002D2003234333432345434653473347434203425
:0602E2000D340A34003463
:02400E004A2F37
:00000001FF
