:10000000F5EF18F00000000000EF00F00000000025
:0A0010000000000000000000F3D71C
:10001C0091C3C9FFC7B002D00000FCD7C9CF00F014
:02002C001200C0
:10002E00F250026EF29E0500FF6A0150FE6E005005
:08003E00FD6E02BEF28E1200FD
:10004600828086C2E1FF87C2E2FFFF0EE66E84C2AF
:0A00560000F085C201F0E8DF12009F
:1000600086C2E1FF87C2E2FFFF0EE66E84C200F0A7
:1000700085C201F0DCDF0050FE0A01E0F1D712007A
:10008000400E03018825006E86C2E1FF87C2E2FFB1
:1000900000C0E6FF84C200F085C201F0C8DF86C25E
:1000A000E1FF87C2E2FF8CC3E6FF84C200F085C295
:1000B00001F0BDDF86C2E1FF87C2E2FF8BC3E6FF2E
:1000C00084C200F085C201F0B2DF86C2E1FF87C2C0
:1000D000E2FF8AC3E6FF84C200F085C201F0A7DF19
:1000E00086C2E1FF87C2E2FF89C3E6FF84C200F057
:1000F00085C201F09CDF86C2E1FF87C2E2FF8DC3AB
:10010000E6FF84C200F085C201F091DF03018F6B2E
:10011000906B86C2E1FF87C2E2FFFF0EE66E84C2EB
:1001200000F085C201F083DF00C08EF303018F4B26
:10013000902B800E0014016E0150000A07E0000EA3
:10014000905D02E1640E8F5D01E2E3D78EC300F0A3
:0201500012009B
:040152008290120085
:10015600FDDF000E000A02E1040E151809E17AC35C
:100166007EF37BC37FF37CC380F37DC381F314D01E
:10017600090E006E7AC37EF37BC37FF37CC380F3E4
:100186007DC381F3005008E003017E377E917F37FF
:1001960080378137FF0FF7D70301120E886F7EC3B2
:1001A60089F37FC38AF380C38BF381C38CF3FF0E7D
:1001B6008D6F63DF005204E043DF010E006E01D055
:0401C600006A1200B9
:1001CA00010E03017A25E96E000E7B21EA6EEECF5D
:1001DA0003F0000E046E000E046E03C001F0006A04
:1001EA0000C003F001C004F07AC3D9FF7BC3DAFF71
:1001FA00DE500026000E012200C003F001C004F008
:0A020A0000C003F001C004F0120070
:10021400030E03017A25E96E000E7B21EA6EEECF10
:1002240009F0000E0A6E0B6E0C6E000E0A6E0B6E59
:100234000C6E0BC003F00AC002F009C001F0006AA2
:1002440000C009F001C00AF002C00BF003C00CF0BA
:10025400020E7A25D96E000E7B21DA6EDE50002460
:10026400056E000E0120066E000E0220076E000EC1
:100274000320086E05C009F006C00AF007C00BF0A1
:1002840008C00CF007C003F006C002F005C001F07E
:10029400006A00C009F001C00AF002C00BF003C0FC
:1002A4000CF0010E7A25D96E000E7B21DA6EDE5039
:1002B4000024056E000E0120066E000E0220076E5B
:1002C400000E0320086E05C009F006C00AF007C03E
:1002D4000BF008C00CF007C003F006C002F005C024
:1002E40001F0006A00C009F001C00AF002C00BF07E
:1002F40003C00CF07AC3D9FF7BC3DAFFDE500026BB
:10030400000E01220222032200C009F001C00AF0FB
:1003140002C00BF003C00CF000C009F001C00AF0E9
:0A03240002C00BF003C00CF0120041
:10032E007CC304F07DC305F07AC302F07BC303F0F7
:10033E007EC300F07FC301F0010E03017E5F000E4D
:10034E007F5B005001100FE004C0E9FF05C0EAFF1B
:10035E0002C0E1FF03C0E2FFEECFE6FF024A032A2E
:10036E00044A052AE5D77AC300F07BC301F01200D8
:10037E000B6A0A6A096A00500402F4CF09F0F3CF3F
:10038E0008F001500502F4CF0BF0F3CF0AF0005045
:10039E000502F3500926F4500A22E86A0B22015096
:1003AE000402F3500926F4500A22E86A0B2208C010
:1003BE0000F009C001F00AC002F00BC003F01200F9
:1003CE00086A096A100E0C6E01340836093604509C
:1003DE00085E0550D8A0053C095ED8B007D0045081
:1003EE0008260550D8B0053C0926D89000360136AF
:0603FE000C2EEAD71200EC
:100404007AC302F07BC303F07DC300F07EC301F026
:10041400010E03017D5F000E7E5B0050011009E0B8
:1004240002C0E1FF03C0E2FF7CC3E6FF024A032AE5
:0C043400EBD77AC300F07BC301F012008C
:1004400086C2E1FF87C2E2FF4C0EE66E84C200F076
:1004500085C201F0ECDD86C2E1FF87C2E2FFE66AF9
:1004600084C200F085C201F0E2DD86C2E1FF87C2EE
:10047000E2FFE66A84C200F085C201F0D8DD86C2E0
:10048000E1FF87C2E2FFE66A84C200F085C201F0A4
:10049000CEDD86C2E1FF87C2E2FFE66A84C200F0D9
:1004A00085C201F0C4DD86C2E1FF87C2E2FFFF0E14
:1004B000E66E84C200F085C201F0B9DD03017B6BFA
:1004C0007C6B86C2E1FF87C2E2FFFF0EE66E84C24C
:1004D00000F085C201F0ABDD00C07AF303017B4B75
:1004E0007C2B800E0014016E0150000A07E0000E04
:1004F0007C5D02E1640E7B5D01E2E3D77AAF04D05C
:10050000A2DD7AC300F012D086C2E1FF87C2E2FF0B
:10051000FF0EE66E84C200F085C201F088DD00C0E7
:0E0520007AF30050000AF0E08EDD006A12004F
:10052E007AC3E9FF7BC3EAFFEE5211E07AC3E9FF1B
:10053E007BC3EAFF7CC3D9FF7DC3DAFFEE50DE1822
:10054E0006E103017A4B7B2B7C4B7D2BE9D77AC3DB
:10055E00E9FF7BC3EAFF7CC3D9FF7DC3DAFFDE5020
:0C056E00EE5C006E016A000E015A1200E3
:10057A00EBDD000E000A02E1040E151809E17AC348
:10058A0082F37BC383F37CC384F37DC385F314D0E6
:10059A00090E006E7AC382F37BC383F37CC384F3B0
:1005AA007DC385F3005008E00301823782918337C7
:1005BA0084378537FF0FF7D70301110E886F82C37F
:1005CA0089F383C38AF384C38BF385C38CF3FF0E49
:1005DA008D6F51DD005204E031DD010E006E4BD00B
:1005EA0086C2E1FF87C2E2FFFF0EE66E84C200F018
:1005FA0085C201F017DD0050FE0A01E0F1D70301C0
:10060A00806B816B020E815D02E1000E805D1BE250
:10061A0080517E25866F81517F21876F86C2E1FFD7
:10062A0087C2E2FFFF0EE66E84C200F085C201F0C7
:10063A00F9DC86C3E1FF87C3E2FF00C0E6FF0301DE
:10064A00804B812BDFD786C2E1FF87C2E2FFFF0E14
:10065A00E66E84C200F085C201F0E4DC86C2E1FFE6
:10066A0087C2E2FFFF0EE66E84C200F085C201F087
:08067A00D9DCE4DC006A120087
:1006820067DD000E000A02E1040E151809E17AC3C3
:1006920082F37BC383F37CC384F37DC385F314D0DD
:1006A200090E006E7AC382F37BC383F37CC384F3A7
:1006B2007DC385F3005008E00301823782918337BE
:1006C20084378537FF0FF7D70301180E886F82C36F
:1006D20089F383C38AF384C38BF385C38CF3FF0E40
:1006E2008D6FCDDC005204E0ADDC010E006E8BD0CC
:1006F20086C2E1FF87C2E2FFFF0EE66E84C200F00F
:1007020085C201F093DC86C2E1FF87C2E2FFFF0EE1
:10071200E66E84C200F085C201F088DC86C2E1FF89
:1007220087C2E2FFFE0EE66E84C200F085C201F0CF
:100732007DDC0301806B816B8151010802E18051F4
:10074200FF0815E380517E25E96E81517F21EA6E13
:1007520086C2E1FF87C2E2FFEECFE6FF84C200F06D
:1007620085C201F063DC0301804B812BE5D786C291
:10077200E1FF87C2E2FFFF0EE66E84C200F085C28F
:1007820001F054DC86C2E1FF87C2E2FFFF0EE66E93
:1007920084C200F085C201F049DC86C2E1FF87C253
:1007A200E2FFFF0EE66E84C200F085C201F03EDC7D
:1007B20000C080F3000E0301816F1F0E8015016ED1
:1007C20081C302F0000E021601C080F302C081F361
:1007D200000E021802E1050E011804E033DC020EDD
:1007E200006E11D086C2E1FF87C2E2FFFF0EE66E05
:1007F20084C200F085C201F019DC0050FF0A01E05A
:08080200F1D720DC006A1200AE
:10080A0003017A51200A09E07A510D0804E3090E1E
:10081A007A5D01E302D0006A02D0010E006E120076
:10082A001ADC03017C6B7D6B020E7D5D02E1000E1A
:10083A007C5D1CE27C517A257E6F7D517B217F6F26
:10084A0086C2E1FF87C2E2FFFF0EE66E84C200F0B5
:10085A0085C201F017EC00F07EC3E1FF7FC3E2FF1F
:10086A0000C0E6FF03017C4B7D2BDED786C2E1FF89
:10087A0087C2E2FFFF0EE66E84C200F085C201F075
:10088A0017EC00F086C2E1FF87C2E2FFFF0EE66EB8
:0E089A0084C200F085C201F017EC00F01200DD
:1008A80046C200F047C201F054C204F055C205F038
:1008B80062DD00C069F301C06AF3020E03016B6FC9
:1008C800000E6C6F54C204F055C205F0020E006EA3
:1008D800000E016E78DD00C06DF301C06EF3000EEE
:1008E8006F6F706F0201485103016D25736F02012C
:1008F800495103016E21746F02014A5103016F21AE
:10090800756F02014B5103017021766F73C36DF34C
:1009180074C36EF375C36FF376C370F354C204F0F7
:1009280055C205F0020E006E000E016E4CDD08C0C7
:1009380000F009C001F000C002F001C003F0023667
:10094800029003363C0E0224716F000E0320726F72
:1009580073C37AF374C37BF375C37CF376C37DF3F7
:10096800ABEC00F0010E02013C6F3C0E03017A6F04
:10097800000E7B6F56DF03016A516C5D02E169511D
:100988006B5D2DE271C3E9FF72C3EAFFEECF01F0A0
:10099800EECF02F0000E021802E1000E011801E18C
:1009A8001ED0020E7125016E000E7221026E01C06A
:1009B80071F302C072F36B4B6C2B02500201D31916
:1009C80002E1D25101180AE13C0E0301716F000ED9
:1009D800726F3C0E7A6F000E7B6F23DFCCD72CDD55
:1009E800005208E0100E0201676FFF0E006EFF0E46
:1009F800016E10D003016C516A1902E169516B193B
:100A080005E1FF0E006EFF0E016E04D06BC300F00F
:060A18006CC301F01200A6
:100A1E00220E0C6E086A096A0A6A0B6A0C06D8B4B2
:100A2E001FD0D8900B320A3209320832033202320A
:100A3E0001320032D8A0F2D70C06D8B409D0045037
:100A4E0008260550092206500A2207500B22EAD723
:100A5E00045008260550092206500A2207500B2280
:020A6E00120074
:100A700054C204F055C205F069C300F06AC301F026
:100A8000A6DC00C071F301C072F3000E0301736FA6
:100A9000746F0201485103017125006E0201495132
:100AA00003017221016E02014A5103017321026E9A
:100AB00002014B5103017421036E00C071F301C0A8
:100AC00072F302C073F303C074F3010E02013C6FB2
:100AD00000C07AF301C07BF302C07CF303C07DF356
:100AE0003C0E03017E6F000E7F6F47DD005208E071
:100AF000100E0201676FFF0E006EFF0E016E8CD0AC
:100B000054C204F055C205F069C300F06AC301F095
:100B10005EDC08C000F009C001F000C06FF301C046
:100B200070F300C002F001C003F0023602900336F9
:100B300002C06FF303C070F33C0E0224E16E000E9E
:100B40000320E26E6BC3E6FF010E03016F25006E0A
:100B5000000E7021016E3C0E0024E16E000E01209B
:100B6000E26E6CC3E6FF71C37AF372C37BF373C3A7
:100B70007CF374C37DF33C0E7E6F000E7F6F81DDCE
:100B8000005208E0050E0201676FFF0E006EFF0EB7
:100B9000016E42D0010E03016D6F000E6E6F000EEC
:100BA0006E5D04E10201435103016D5D33E2020118
:100BB000465103017125006E020147510301722164
:100BC000016E000E7321026E000E7421036E00C0D0
:100BD00071F301C072F302C073F303C074F300C079
:100BE0007AF301C07BF302C07CF303C07DF33C0EBB
:100BF0007E6F000E7F6F45DD005208E0050E02019A
:100C0000676FFF0E006EFF0E016E06D003016D4B85
:0A0C10006E2BC5D7006A016A1200BE
:100C1A0069C36DF36AC36EF36BC36FF36CC370F38E
:100C2A000301716B726B000E725D02E1080E715D59
:100C3A0019E26DC3E9FF6EC3EAFFEE50200A01E133
:100C4A0011D06DC3E9FF6EC3EAFF6FC3E1FF70C342
:100C5A00E2FFEECFE6FF6F4B702B6D4B6E2B714BA5
:100C6A00722BE1D7080E6925016E000E6A21026E09
:100C7A0001C06DF302C06EF301C0E9FF02C0EAFFD2
:100C8A00EE50200A29E06FC3E1FF70C3E2FF2E0E87
:100C9A00E66E6F4B702B716B726B000E725D02E128
:100CAA00030E715D19E26DC3E9FF6EC3EAFFEE50F0
:100CBA00200A01E111D06DC3E9FF6EC3EAFF6FC3D9
:100CCA00E1FF70C3E2FFEECFE6FF6F4B702B6D4B77
:100CDA006E2B714B722BE1D76FC3E1FF70C3E2FF3A
:100CEA00E66A0D0E6B25E16E000E6C21E26E0B0EAC
:100CFA006925E96E000E6A21EA6EEECFE6FF1A0E4A
:100D0A006B25736F000E6C21746F1C0E69257A6F48
:100D1A00000E6A217B6F0AEC01F073C3E1FF74C312
:100D2A00E2FF00C0E6FF01C0E6FF02C0E6FF03C023
:100D3A00E6FF1E0E6B25736F000E6C21746F1A0E80
:100D4A0069257A6F000E6A217B6FE5EC00F073C3A8
:100D5A00E1FF74C3E2FF00C0E6FF01C0E6FF0E0E2A
:100D6A006925006E000E6A21016E00C0E9FF01C00C
:100D7A00EAFFEECF04F0010E0024E96E000E012016
:100D8A00EA6EEECF03F003C001F0006A04500024BB
:100D9A00036E000E0120046E03C071F304C072F3E7
:100DAA000E0E6B25006E000E6C21016E030E0024E0
:100DBA00E16E000E0120E26E0B0E026E03C000F01F
:100DCA0004C001F0025005E001320032019EFF0F1B
:100DDA00FAD700C0E6FF0E0E6B25006E000E6C21DE
:100DEA00016E040E0024E16E000E0120E26E050E73
:100DFA00026E71C300F072C301F0025005E00132C5
:100E0A000032019EFF0FFAD73F0E0014006E00C099
:100E1A00E6FF0E0E6B25006E000E6C21016E050EAC
:100E2A000024E16E000E0120E26E1F0E7115026EA3
:100E3A0002C000F00036009000C0E6FF100E6925DF
:100E4A00006E000E6A21016E00C0E9FF01C0EAFFD0
:100E5A00EECF04F0010E0024E96E000E0120EA6EC6
:100E6A00EECF03F003C001F0006A04500024026EC2
:100E7A00000E0120036E02C071F303C072F30E0E5E
:100E8A006B25006E000E6C21016E020E0024E16ECD
:100E9A00000E0120E26E1F0E0214006E00C0E6FF73
:100EAA000E0E6B25006E000E6C21016E010E0024E1
:100EBA00E16E000E0120E26E050E026E71C300F0B3
:100ECA0072C301F0025005E001320032019EFF0FA9
:100EDA00FAD70F0E0014006E00C0E6FF0E0E6B2547
:100EEA00E16E000E6C21E26E090E026E71C300F013
:100EFA0072C301F0025005E001320032019EFF0F79
:100F0A00FAD700C0E6FF160E6925006E000E6A21A8
:100F1A00016E00C0E9FF01C0EAFFEECF04F0010E46
:100F2A000024E96E000E0120EA6EEECF03F003C042
:100F3A0001F0006A04500024036E000E0120046EC2
:100F4A0003C071F304C072F3140E6B25006E000E19
:100F5A006C21016E030E0024E16E000E0120E26E88
:100F6A000B0E026E03C000F004C001F0025005E04F
:100F7A0001320032019EFF0FFAD700C0E6FF140EBD
:100F8A006B25006E000E6C21016E040E0024E16ECA
:100F9A00000E0120E26E050E026E71C300F072C3EC
:100FAA0001F0025005E001320032019EFF0FFAD72C
:100FBA003F0E0014006E00C0E6FF140E6B25006E93
:100FCA00000E6C21016E050E0024E16E000E012058
:100FDA00E26E1F0E7115026E02C000F0003600901C
:100FEA0000C0E6FF180E6925006E000E6A21016E28
:100FFA0000C0E9FF01C0EAFFEECF04F0010E0024B1
:10100A00E96E000E0120EA6EEECF03F003C001F094
:10101A00006A04500024026E000E0120036E02C012
:10102A0071F303C072F3140E6B25006E000E6C216F
:10103A00016E020E0024E16E000E0120E26E1F0E08
:10104A000214006E00C0E6FF140E6B25006E000E3F
:10105A006C21016E010E0024E16E000E0120E26E89
:10106A00050E026E71C300F072C301F0025005E072
:10107A0001320032019EFF0FFAD70F0E0014006EE4
:10108A0000C0E6FF140E6B25E16E000E6C21E26EC5
:10109A00090E026E71C300F072C301F0025005E03E
:1010AA0001320032019EFF0FFAD700C0E6FF12009C
:1010BA006B0E0301766F030E776F69C378F36AC309
:1010CA0079F36B0E7A6F030E7B6F200E7C6F0B0E1B
:1010DA007D6F000E7E6F02EC02F069C3E9FF6AC3FE
:1010EA00EAFFEE520DE069C3E9FF6AC3EAFFEECFF9
:1010FA007AF305EC04F0005203E0694B6A2BEDD752
:10110A0069C37AF36AC37BF3390E7C6F000E7D6F75
:10111A0097EC02F0000E011802E1000E001806E139
:10112A002E0E03016B6F2E0E6C6F60D0030169C324
:10113A007AF36AC37BF3370E7C6F000E7D6F97ECF0
:10114A0002F0000E011802E1000E001804E12E0E52
:10115A0003016B6F4BD069C3E9FF6AC3EAFFEE5222
:10116A0020E069C3E9FF6AC3EAFFEECF7AF305EC30
:10117A0004F0005216E169C3E9FF6AC3EAFFEE50C0
:10118A002E0A0FE069C3E9FF6AC3EAFF76C3E1FFEB
:10119A0077C3E2FFEECFE6FF764B772B694B6A2BDC
:1011AA00DAD769C3E9FF6AC3EAFFEE502E0A03E100
:1011BA000301694B6A2B0301730E766F030E776F77
:1011CA0069C3E9FF6AC3EAFFEE5020080FE269C368
:1011DA00E9FF6AC3EAFF76C3E1FF77C3E2FFEECF16
:1011EA00E6FF764B772B694B6A2BEAD778C37AF3FB
:1011FA0079C37BF36B0E7C6F030E7D6F0B0E7E6FD4
:0A120A00000E7F6F97EC01F0120058
:10121400030169517A0804E3610E695DD8B0699BE2
:0612240069C300F0120096
:10122A0069C302F06AC303F002C000F003C001F010
:10123A00024A032A00C0E9FF01C0EAFFEE5201E0B8
:10124A00F3D703016951025C006E6A510358016EBB
:0A125A00010E005E000E015A1200A2
:101264006DC301F06EC302F0010E03016D5F000E49
:101274006E5B000E021802E1000E01181FE069C344
:10128400E9FF6AC3EAFF6BC3D9FF6CC3DAFFEE5010
:10129400DE180FE069C3E9FF6AC3EAFF6BC3D9FF35
:1012A4006CC3DAFFDE50EE5C006E016A000E015A78
:1012B40007D0694B6A2B6B4B6C2BD2D7006A016A3F
:0212C400120016
:1012C60059C369F35AC36AF3ADDF00C05BF300503C
:1012D600000A03E1FF0E006E5AD05B510C0803E2D0
:1012E600FE0E006E54D059C3D9FF5AC3DAFF2E0E34
:1012F600DE1803E1FD0E006E4AD05D6B59C35EF346
:101306005AC35FF35BC35CF35C51000820E25C5197
:101316005925D96E000E5A21DA6E2E0EDE1815E109
:10132600010E5D6F5C51080803E2FC0E006E2FD0C3
:101336005C51010F006E016A000E01220050592512
:101346005E6F01505A215F6F02D05C07DDD7010E38
:101356005D1906E05B51080803E2FB0E006E17D02C
:10136600010E5D1913E15EC369F35FC36AF35ADFC9
:1013760000C05BF30050000A03E1F50E006E07D0D3
:101386005B51030803E2F40E006E01D0006A1200FE
:1013960003015D6B0D0E5D5D17E25D5159255E6FB4
:1013A600000E5A215F6F5D515B25E96E000E5C21D0
:1013B600EA6EEECF69F32BDF5EC3E1FF5FC3E2FFA8
:0A13C60000C0E6FF5D2BE6D7120021
:1013D0000B6A0A6A096A086A0E6A033408360450FE
:1013E000085E0550D8A0053C095E0650D8A0063C12
:1013F0000A5E0750D8A0073C0B5EE86AD8A0010E31
:101400000E5E0336070E0C6E0334083609360A36B4
:101410000B360E36045003A012D0085E0550D8A03B
:10142000053C095E0650D8A0063C0A5E0750D8A0CD
:10143000073C0B5EE86AD8A0010E0E5E11D00826AC
:101440000550D8B0053C09260650D8B0063C0A26FF
:101450000750D8B0073C0B26E86AD8B0010E0E261C
:1014600003360C2ED1D70234083609360A360B362D
:101470000E36045003A012D0085E0550D8A0053CDB
:10148000095E0650D8A0063C0A5E0750D8A0073C6B
:101490000B5EE86AD8A0010E0E5E11D0082605503A
:1014A000D8B0053C09260650D8B0063C0A2607509D
:1014B000D8B0073C0B26E86AD8B0010E0E260236DB
:1014C000070E0C6E0234083609360A360B360E3615
:1014D000045002A012D0085E0550D8A0053C095E59
:1014E0000650D8A0063C0A5E0750D8A0073C0B5E09
:1014F000E86AD8A0010E0E5E11D008260550D8B0BB
:10150000053C09260650D8B0063C0A260750D8B03C
:10151000073C0B26E86AD8B0010E0E2602360C2EC8
:10152000D1D70134083609360A360B360E36045048
:1015300002A012D0085E0550D8A0053C095E0650F6
:10154000D8A0063C0A5E0750D8A0073C0B5EE86AAC
:10155000D8A0010E0E5E11D008260550D8B0053C6B
:1015600009260650D8B0063C0A260750D8B0073CDA
:101570000B26E86AD8B0010E0E260136070E0C6E57
:101580000134083609360A360B360E36045001A0EF
:1015900012D0085E0550D8A0053C095E0650D8A0C0
:1015A000063C0A5E0750D8A0073C0B5EE86AD8A04C
:1015B000010E0E5E11D008260550D8B0053C092654
:1015C0000650D8B0063C0A260750D8B0073C0B2678
:1015D000E86AD8B0010E0E2601360C2ED1D70034A1
:1015E000083609360A360B360E36045001A012D0E2
:1015F000085E0550D8A0053C095E0650D8A0063C00
:101600000A5E0750D8A0073C0B5EE86AD8A0010E1E
:101610000E5E11D008260550D8B0053C09260650AC
:10162000D8B0063C0A260750D8B0073C0B26E86A1B
:10163000D8B0010E0E260036070E0C6E00340836A8
:1016400009360A360B360E36045000A012D0085E5A
:101650000550D8A0053C095E0650D8A0063C0A5E9D
:101660000750D8A0073C0B5EE86AD8A0010E0E5EBA
:1016700011D008260550D8B0053C09260650D8B030
:10168000063C0A260750D8B0073C0B26E86AD8B0BB
:10169000010E0E2600360C2ED1D700B00ED004500D
:1016A00008260550D8B0053C09260650D8B0063C9F
:0C16B0000A260750D8B0073C0B26120099
:1016BC00010E02013C6F060E006E000E016E98C208
:1016CC0004F0000E056EBFEC01F0D40E0026020EE5
:1016DC000122020E0024E96E000E0120EA6EEECF0C
:1016EC007AF3EECF7BF3EECF7CF3EECF7DF33C0EB3
:1016FC0003017E6F000E7F6FBDEC02F0005206E01E
:10170C00100E0201676FFF0E006EBBD0470E030177
:10171C007A6F000E7B6FE5EC00F000C03DF201C06B
:10172C003EF249C03FF2000E0201406F4A0E030127
:10173C007A6F000E7B6FE5EC00F000C041F201C047
:10174C0042F24CC043F24D0E7A6F000E7B6FE5EC0B
:10175C0000F000C044F201C045F2520E7A6F000E48
:10176C007B6FE5EC00F000C046F201C047F2060EBC
:10177C00006E000E016E98C204F0000E056EBFECF8
:10178C0001F0D40E0026020E0122020E0024E96E96
:10179C00000E0120EA6E02014151EE240301596F43
:1017AC0002014251EE2003015A6F000EEE205B6FD6
:1017BC00000EEE205C6F59C348F25AC349F25BC36A
:1017CC004AF25CC34BF243C200F0000E016E46C2FB
:1017DC0004F047C205F0BFEC01F00050592701504E
:1017EC005A23000E5B235C2359C34CF25AC34DF2AF
:1017FC005BC34EF25CC34FF2050E026E44C200F0A6
:10180C0045C201F0025005E0003600900136FF0F92
:10181C00FAD703013DC204F03EC205F0E7EC01F03B
:10182C00000E026E036E595100265A5101225B5173
:10183C0002225C51032200C050F201C051F202C0DE
:10184C0052F203C053F23DC254F23EC255F20201B1
:10185C0055335433559F050E006E3DC292F23EC275
:10186C0093F2005005E093339233939FFF0FFAD716
:10187C004CC28EF24DC28FF24EC290F24FC291F218
:04188C00006A1200DC
:1018900054C204F055C205F059C300F05AC301F018
:1018A000E7EC01F000C05BF301C05CF3000E030144
:1018B0005D6F5E6F0201485103015B25006E0201FE
:1018C000495103015C21016E02014A5103015D216E
:1018D000026E02014B5103015E21036E00C05BF3F7
:1018E00001C05CF302C05DF303C05EF3010E0201B0
:1018F0003C6F00C07AF301C07BF302C07CF303C0ED
:101900007DF33C0E03017E6F000E7F6FBDEC02F095
:10191000005208E0100E0201676FFF0E006EFF0E0E
:10192000016E22D054C204F055C205F059C300F034
:101930005AC301F0E7EC01F008C000F009C001F063
:1019400000C002F001C003F00236029003363C0EE4
:10195000022403017A6F000E03207B6FE5EC00F098
:0A19600000C059F301C05AF3120051
:10196A0003015A6B5B6B270E5B5D02E1100E5A5D39
:10197A00D8B0AAD0000E000A02E1000E591918E1E7
:10198A00A9EC00F0010E886F896B8A6B8B6B8C6BEC
:10199A00FF0E8D6F40EC00F000C05CF323EC00F00A
:1019AA0003015C51000A03E1156A006A8FD089D0ED
:1019BA00A9EC00F0370E886F896B8A6B8B6B8C6B86
:1019CA00FF0E8D6F40EC00F000C05CF323EC00F0DA
:1019DA0003015C51010AD8A473D0A9EC00F0290EC6
:1019EA00886F000E896F000E8A6F000E8B6F400E93
:1019FA008C6FFF0E8D6F40EC00F000C05CF323EC9F
:101A0A0000F003015C51000A5AE1000E000A02E1EB
:101A1A00020E591950E1A9EC00F03A0E886F896B51
:101A2A008A6B8B6B8C6BFF0E8D6F40EC00F000C0E5
:101A3A005CF386C2E1FF87C2E2FFFF0EE66E84C254
:101A4A0000F085C201F017EC00F000C05DF386C219
:101A5A00E1FF87C2E2FFFF0EE66E84C200F085C294
:101A6A0001F017EC00F086C2E1FF87C2E2FFFF0E29
:101A7A00E66E84C200F085C201F017EC00F086C25F
:101A8A00E1FF87C2E2FFFF0EE66E84C200F085C264
:101A9A0001F017EC00F023EC00F003015C51000A9E
:101AAA0009E15DAD03D0040E156E02D0030E156E6A
:101ABA00006A0CD004D0010E156E006A07D001D05E
:0E1ACA0003D05A4B5B2B4FD7010E006E12005B
:101AD8001A0E030159257A6F000E5A217B6FE5EC27
:101AE80000F05DC3E1FF5EC3E2FF00C0E6FF01C096
:101AF800E6FF5DC3E9FF5EC3EAFFEECF00F0EECF7D
:101B080001F0005001102DE154EC04F05DC3E1FF39
:101B18005EC3E2FF00C0E6FF01C0E6FF5DC3E9FF68
:101B28005EC3EAFFEECF01F0EECF02F00250FF0AEB
:101B380002E1FF0E011806E1040E0201676FFF0EB5
:101B4800006E7ED15DC3E9FF5EC3EAFFEECF69F3A5
:101B5800EECF6AF3FF0E03016B6FFF0E6C6F38EC6C
:101B680005F05DC3E9FF5EC3EAFFEECF00F0EECFFC
:101B780001F0000E026E036E020E005E000E015AA6
:101B8800025A035A3FC204F040C205F0000E066E26
:101B9800076E0FEC05F05BC3E1FF5CC3E2FF00508A
:101BA80002015025E66E01505121E66E0250522185
:101BB800E66E03505321E66E91514F1908E190519A
:101BC8004E1905E18F514D1902E18E514C1905E16D
:101BD80044C261F345C262F30ED03FC200F040C276
:101BE80001F092C204F093C205F0BFEC01F000C00E
:101BF80061F301C062F38EC265F38FC266F390C2CF
:101C080067F391C268F33C0E0301636F000E646FC3
:101C18008EC27AF38FC27BF390C27CF391C27DF3BC
:101C2800ABEC00F0010E02013C6F3C0E03017A6F31
:101C3800000E7B6F15EC04F003015F6B606B625163
:101C4800605D02E161515F5DD8B0EBD063C3E9FF2D
:101C580064C3EAFFEECF01F00150E50A0AE063C36E
:101C6800E9FF64C3EAFFEECF01F0200E015C01E357
:101C7800B1D020EC02F0005206E0100E0201676FAE
:101C8800FF0E006EDDD063C37AF364C37BF359C3E0
:101C98007CF35AC37DF3200E03017E6F000E7F6F25
:101CA80097EC01F01A0E6325E16E000E6421E26ED6
:101CB8005DC3E9FF5EC3EAFFFF0EEE14006E00C0CD
:101CC800E6FF1A0E6325006E000E6421016E010EF8
:101CD8000024E16E000E0120E26E5DC3E9FF5EC3E1
:101CE800EAFFEECF03F0EECF04F004C000F0016A83
:101CF80000C0E6FF0E0E6325E16E000E6421E26E61
:101D080065C2E6FF0E0E6325006E000E6421016EAB
:101D1800010E0024E16E000E0120E26E66C2E6FFAD
:101D2800100E6325E16E000E6421E26E63C2E6FFC9
:101D3800100E6325006E000E6421016E010E002452
:101D4800E16E000E0120E26E64C2E6FF160E632506
:101D5800E16E000E6421E26E65C2E6FF160E632591
:101D6800006E000E6421016E010E0024E16E000E6B
:101D78000120E26E66C2E6FF180E6325E16E000ED2
:101D88006421E26E63C2E6FF180E6325006E000E42
:101D98006421016E010E0024E16E000E0120E26E46
:101DA80064C2E6FF65C37AF366C37BF367C37CF35B
:101DB80068C37DF33C0E7E6F000E7F6F41EC03F02D
:101DC800005206E0050E0201676FFF0E006E38D064
:101DD800006A36D0200E03016325016E000E6421CF
:101DE800026E01C063F302C064F302500201D3190A
:101DF80002E1D251011811E1010E03016527000E1D
:101E08006623672368233C0E636F000E646F3C0EE5
:101E18007A6F000E7B6F15EC04F003015F4B602BAB
:101E28000ED720EC02F0005206E0100E0201676F98
:101E3800FF0E006E05D00201060E676FFF0E006EE2
:021E4800120086
:101E4A000301636B646B656B666B59515A1103E14D
:101E5A00FF0E006EDDD059C369F35AC36AF35DEC15
:101E6A0008F0020191514F1908E190514E1905E10C
:101E7A008F514D1902E18E514C1905E144C25FF3AD
:101E8A0045C260F30ED03FC200F040C201F092C2D8
:101E9A0004F093C205F0BFEC01F000C05FF301C08B
:101EAA0060F38EC263F38FC264F390C265F391C28A
:101EBA0066F33C0E0301616F000E626F8EC27AF305
:101ECA008FC27BF390C27CF391C27DF3ABEC00F03E
:101EDA00010E02013C6F3C0E03017A6F000E7B6F0C
:101EEA0015EC04F003015D6B5E6B60515E5D02E10F
:101EFA005F515D5DD8B080D061C369F362C36AF394
:101F0A0059C36BF35AC36CF30B0E6D6F000E6E6FF1
:101F1A0032EC09F0000E011802E1000E001845E14A
:101F2A0020EC02F0005206E0100E0201676FFF0E6D
:101F3A00006E6ED003015B515C1135E061C369F339
:101F4A0062C36AF35BC36BF35CC36CF30DEC06F01C
:101F5A00200E5B25E16E000E5C21E26E63C3E6FF94
:101F6A0064C3E6FF65C3E6FF66C3E6FF240E5B258E
:101F7A00E16E000E5C21E26E3C0E615D036E000EA6
:101F8A006259046E050E026E03C000F004C001F02F
:101F9A00025005E001320032019EFF0FFAD700C05D
:101FAA00E6FF01C0E6FF006A33D00301200E612577
:101FBA00016E000E6221026E01C061F302C062F37B
:101FCA0002500201D31902E1D251011811E1010EA6
:101FDA0003016327000E6423652366233C0E616FA9
:101FEA00000E626F3C0E7A6F000E7B6F15EC04F0E8
:101FFA0003015D4B5E2B79D720EC02F0005206E01C
:10200A00100E0201676FFF0E006E02D0FF0E006E07
:02201A001200B2
:10201C00050E156E949023EC00F00201F66BF76B35
:10202C00000EF75D02E10A0EF65D10E286C2E1FFDA
:10203C0087C2E2FFFF0EE66E84C200F085C201F09B
:10204C0017EC00F00201F64BF72BEAD7A9EC00F0E5
:10205C000301886B896B8A6B8B6B8C6B950E8D6F08
:10206C0040EC00F000C0F8F223EC00F00201F85153
:10207C00010A03E0010E006E80D0A9EC00F0080EFE
:10208C000301886FAA0E896F010E8A6F000E8B6F89
:10209C008C6F870E8D6F40EC00F000C0F8F286C29A
:1020AC00E1FF87C2E2FFFF0EE66E84C200F085C23C
:1020BC0001F017EC00F086C2E1FF87C2E2FFFF0ED1
:1020CC00E66E84C200F085C201F017EC00F086C207
:1020DC00E1FF87C2E2FFFF0EE66E84C200F085C20C
:1020EC0001F017EC00F086C2E1FF87C2E2FFFF0EA1
:1020FC00E66E84C200F085C201F017EC00F023EC10
:10210C0000F00201F851010A09E0010E0301596FB8
:10211C0026DC005202E0596B22DC04D00301020ED3
:10212C00596F1DDC000E000A02E1050E151803E1C3
:10213C00020E006E22D0000E000A02E1040E1518E9
:10214C001BE00301A9EC00F0100E886F000E896FE4
:10215C00020E8A6F000E8B6F8C6FFF0E8D6F40EC32
:10216C0000F000C0F8F223EC00F00201F851000A74
:0C217C0003E0030E006E01D0006A1200A8
:10218800010E02013C6F3C0E03017A6F000E7B6F5B
:102198007C6B000E7D6F020E7E6F02EC02F0020176
:1021A800F66B020EF65D1BE21C0E006E000E016E51
:1021B800F6C204F0000E056EBFEC01F09A0E002482
:1021C80003017A6F020E01207B6F7C6B1C0E7D6F02
:1021D800000E7E6F02EC02F00201F62BE2D7680EC9
:1021E80003017A6F020E7B6F7C6B1C0E7D6F000EF5
:1021F8007E6F02EC02F00201F66B040EF65D1BE244
:10220800060E006E000E016EF6C204F0000E056E9A
:10221800BFEC01F0D40E002403017A6F020E0120F6
:102228007B6F7C6B060E7D6F000E7E6F02EC02F0FA
:102238000201F62BE2D73D0E03017A6F020E7B6F87
:102248007C6B170E7D6F000E7E6F02EC02F03C0E69
:102258000201D26F020ED36F986B8E6B8F6B906BEF
:10226800916B676B8C6B8D6B886B896B8A6B8B6BD7
:10227800FF0E996F560E03017A6F020E7B6F7C6B0F
:102288000D0E7D6F000E7E6F02EC02F00201656B91
:08229800666B636B646B1200BE
:1022A0000301006B010E02013C6F03017A6B7B6B33
:1022B0007C6B7D6B3C0E7E6F000E7F6FBDEC02F081
:1022C000005206E0100E0201676FFF0E006E9BD1F8
:1022D00002013C0EF86F000EF96FFE0EF825E96E54
:1022E000010EF921EA6EEE50550A03E0010E006E70
:1022F0008AD1FF0EF825E96E010EF921EA6EEE5043
:10230000AA0A03E0010E006E7ED10301006BF8C241
:10231000E9FFF9C2EAFFEE50E90A02E1010E006F9F
:10232000F8C2E9FFF9C2EAFFEE50EB0A0DE1020E36
:102330000201F825E96E000EF921EA6EEE50900ACE
:1023400003E1010E0301006F03010053D8B4B5D0BF
:102350000201FC6BFD6BFE6BFF6BD40EF66F020E81
:10236000F76FF6C2E1FFF7C2E2FF800EE66E020EE3
:10237000F625E16E000EF721E26EE66AE66AE66A8D
:10238000E66A5EEC0BF0800E0018016E800E000A0B
:10239000015C03E2010E006E36D146514711D8B4FC
:1023A00080D050504F10006E1CE050C0FCF2000E68
:1023B000FD6FFE6FFF6FFEC2FFF2FDC2FEF2FCC2B8
:1023C000FDF2FC6B4F50FC27000EFD23FE23FF2384
:1023D000010EF625E16E000EF721E26E040EE66EA8
:1023E00010D05CC0FCF25DC0FDF25EC0FEF25FC0CA
:1023F000FFF2010EF625E16E000EF721E26E060EE9
:10240000E66EFCC200F0FDC201F0FEC202F0FFC2A7
:1024100003F05051005E5151015A5251025A53512A
:10242000035A3FC204F040C205F0000E066E076E6C
:10243000E8EC09F000C0FCF201C0FDF202C0FEF2BF
:1024400003C0FFF2000E035C08E1000E025C05E130
:102450000F0E015C02E1F50E005C0BE2010EF625A9
:10246000E16E000EF721E26E010EE66E010E006EC7
:10247000CAD0FF51000808E1FE51000805E1FD51F6
:10248000FF0802E1FC51F5080BE2010EF625E16EB2
:10249000000EF721E26E0B0EE66E010E006EB3D059
:1024A0000BD0010EF625E16E000EF721E26E0B0E49
:1024B000E66E010E006EA7D0A5D00201FA0EF86FED
:1024C000010EF96FFA6BFB6B000EFB5D02E1040E6F
:1024D000FA5D5BE2060E006E000E016EFAC204F0B9
:1024E000FBC205F0BFEC01F0D40E0026020E012263
:1024F00000C0F6F201C0F7F2F8C2E9FFF9C2EAFF44
:1025000000C0E1FF01C0E2FFEECFE6FF040EF825B8
:10251000006E000EF921016E00C0F8F201C0F9F260
:10252000010EF625E16E000EF721E26E00C0E9FF14
:1025300001C0EAFFEECFE6FF040EF825006E000EA4
:10254000F921016E00C0F8F201C0F9F2020EF62581
:102550000301016F000E0201F7210301026F00C0A9
:102560007AF301C07BF30AEC01F001C3E1FF02C37F
:10257000E2FF00C0E6FF01C0E6FF02C0E6FF03C0C5
:10258000E6FF0201FA4BFB2B9FD7060E006E000EF2
:10259000016E98C204F0000E056EBFEC01F0D40E7F
:1025A0000026020E0122010E0024E96E000E012019
:1025B000EA6EEE50040A1AE0060E006E000E016E7E
:1025C00098C204F0000E056EBFEC01F0D40E002698
:1025D000020E0122010E0024E96E000E0120EA6EB7
:1025E000EE50060A03E0010E006E0DD05EEC0BF01B
:1025F000800E0018016E800E000A015C03E2010EDD
:08260000006E01D0006A120017
:1026080002018251831109E1070E676FFF0E006E08
:10261800FF0E016E026E036EEFD0010E3C6FF95192
:10262800815D08E1F851805D05E1F7517F5D02E1C8
:10263800F6517E5D09E27EC270F27FC271F280C2FD
:1026480072F281C273F208D0F6C270F2F7C271F268
:10265800F8C272F2F9C273F23DC204F03EC205F04C
:10266800000E066E076E70C200F071C201F072C2F1
:1026780002F073C203F0E8EC09F03FC204F040C274
:1026880005F0000E066E076EE8EC09F000C0FAF2DD
:1026980001C0FBF26EC274F26FC275F2000E006EDA
:1026A800FB51005C02E1FA51000826E274C259F3BA
:1026B80075C25AF348EC0CF000C074F201C075F210
:1026C8000150FF0A02E1FF0E001810E17EC270F20D
:1026D8007FC271F280C272F281C273F20A0E0201E5
:1026E800676F006A016A026A036A86D00201010EF6
:1026F800FA5F000EFB5BD2D73DC204F03EC205F084
:10270800000E066E076E70C200F071C201F072C250
:1027180002F073C203F0E8EC09F03FC204F040C2D3
:1027280005F0000E066E076EE8EC09F008C000F030
:1027380009C001F00AC002F00BC003F000C0FCF2AF
:1027480001C0FDF202C0FEF203C0FFF2FCC27AF241
:10275800FDC27BF274C200F075C201F0000E026E79
:10276800036E020E005E000E015A025A035A3FC25F
:1027780004F040C205F0000E066E076E0FEC05F07F
:102788005051002651510122525102225351032225
:10279800FC510026FD510122000E0222032200C036
:1027A80076F201C077F202C078F203C079F23DC236
:1027B80004F03EC205F0000E066E076E70C200F00F
:1027C80071C201F072C202F073C203F0E8EC09F0C2
:1027D80008C000F009C001F00AC002F00BC003F005
:1027E80000C07CF201C07DF270C200F071C201F03D
:0A27F80072C202F073C203F0120077
:10280200F6C259F3F7C25AF363EC09F0005206E03C
:10281200120E0201676FFF0E006E07D2560E030101
:10282200596F020E5A6FF6C25BF3F7C25CF3CBEC40
:1028320009F002018251831120E01C0E006E000E8D
:10284200016E99C204F0000E99BFFF0E056EBFEC37
:1028520001F09A0E0024E16E020E0120E26E1C0EBF
:10286200006E680EE96E020EEA6EEECFE6FF00061B
:10287200FCE1826B836BFF0E996F440E03017A6F4A
:10288200030E7B6F560E7C6F020E7D6F0D0E7E6FF8
:10289200000E7F6F97EC01F0560E596F020E5A6FC1
:1028A2001E0E5B6F030E5C6F25EC0FF0800E00189E
:1028B200016E800E000A015C69E20201F9AF60D08C
:1028C2000301516B526B536B546B556B566B580E25
:1028D2000201F915006E05E0080E676FFF0E006E2B
:1028E200A4D1FA0E03017A6F020E7B6F7C6B200E6D
:1028F2007D6F000E7E6F02EC02F07F0E0201F91571
:10290200006E00C005F3FA0E03017A6F020E7B6FB0
:10291200560E7C6F020E7D6F0B0E7E6F000E7F6F68
:1029220097EC01F0FA0E596F020E5A6F530E5B6F5D
:10293200030E5C6F510E5D6F030E5E6F6CEC0DF05B
:10294200800E0018016E800E000A015C03E2FF0E89
:10295200006E6BD1440E0301596F030E5A6F1E0EA7
:102962005B6F030E5C6F25EC0FF0800E0018016E9A
:10297200800E000A015C03E2FF0E006E56D106D003
:102982000D0E0201676FFF0E006E4FD1580E03014C
:102992002B15006E06E0080E0201676FFF0E006E37
:1029A20044D103011A6B1B6B000E1B5D02E1020E88
:1029B2001A5D4BE21C0E006E000E016E1AC304F08B
:1029C2001BC305F0BFEC01F09A0E0026020E012295
:1029D20000C01CF301C01DF31A0E0024E96E000EA4
:1029E2000120EA6EEE50EE102DE0060E1C25D96E87
:1029F200000E1D21DA6EDECF01F0DECF02F03D5176
:102A0200021802E101503C191DE11A0E1C25E16E6B
:102A1200000E1D21E26EF8C2E6FF000EE66E1C0EED
:102A2200006E680EE16E020EE26E1CC3E9FF1DC36A
:102A3200EAFFEECFE6FF0006FCE11AC399F21AC3E1
:102A420000F0F3D01A4B1B2BAFD71A6B1B6B000E87
:102A52001B5D02E1020E1A5DD8B0E2D01C0E006EC0
:102A6200000E016E1AC304F01BC305F0BFEC01F0A7
:102A72009A0E0026020E01221A0E0024E96E000EA2
:102A82000120EA6EEECF00F0EECF01F0005001100F
:102A9200D8A4C2D01C0E006E000E016E1AC304F040
:102AA2001BC305F0BFEC01F09A0E0026020E0122B4
:102AB20000C01CF301C01DF300C07AF301C07BF318
:102AC2007C6B1C0E7D6F000E7E6F02EC02F0060E18
:102AD2001C25026E000E1D21036E0C0E1C25006EBD
:102AE200000E1D21016E00C0E1FF01C0E2FF3CC3E8
:102AF200E6FF3DC3E6FF00C0E9FF01C0EAFF02C0F6
:102B0200E1FF03C0E2FFEECFE6FFEECFE6FF1A0ED3
:102B12001C25E16E000E1D21E26EF8C2E6FF000EDA
:102B2200E66E1CC3E1FF1DC3E2FF3EC3E6FF3FC3E7
:102B3200E6FF40C3E6FF41C3E6FF040E1C25E16E3B
:102B4200000E1D21E26E050E026E42C300F043C369
:102B520001F0025005E0003600900136FF0FFAD76F
:102B620000C0E6FF01C0E6FF160E1C25E16E000E56
:102B72001D21E26E38C3E6FF39C3E6FF3AC3E6FF22
:102B82003BC3E6FF0E0E1C25576F000E1D21586F2A
:102B92000C0E1C25E96E000E1D21EA6EEECF00F030
:102BA200EECF01F0000E026E036E020E005E000E0A
:102BB200015A025A035A3FC204F040C205F0000E05
:102BC200066E076E0FEC05F00201505100265151BE
:102BD2000122525102225351032257C3E1FF58C32B
:102BE200E2FF00C0E6FF01C0E6FF02C0E6FF03C04D
:102BF200E6FF1C0E006E680EE16E020EE26E1CC352
:102C0200E9FF1DC3EAFFEECFE6FF0006FCE11AC3AF
:102C120099F21AC300F009D003011A4B1B2B17D7E4
:0C2C2200090E0201676FFE0E006E12002A
:102C2E000201EC6B0EEC10F00201EC2B005204E0F2
:102C3E00320EEC5D01E2F6D7320EEC5D03E3FF0ED1
:0E2C4E00006E04D0C4EC10F050EC11F0120037
:102C5C000900F5CFE6FF0006FBE10106F9E11200E1
:102C6C001C0E0201846F000E856F910E866F030E91
:102C7C00876FFF0E946FFF0E956FFF0E966FFF0E12
:102C8C00976F949EEC51040A02E1938201D09392C7
:102C9C009380C66AEC51C612EE51C612ED51C712A2
:102CAC00EE5305E0EF51000AD8B4C78C03D0EF53B4
:082CBC00D8A4C78CC68A1200DF
:102CC40099C2EFF267C2F1F2ECC2F6F2EDC2F7F28A
:102CD400070E0201F86FEEC2F9F291DD00C0F0F2C6
:102CE400800E0018016E800E000A015C37E20201BA
:102CF400F051FE0A31E1F1C267F21C0E006E000EC3
:102D0400016EEFC204F0000EEFBFFF0E056EBFECC4
:102D140001F09A0E0026020E01221A0E0024E16E22
:102D2400000E0120E26EE66AE66AECC2F6F2EDC23B
:102D3400F7F2070EF86FEEC2F9F261DD00C0F0F2AF
:102D4400800E0018016E800E000A015C02E2006A27
:102D540007D0020E006E04D0006A02D0010E006E8D
:022D640012005B
:102D6600060E02018215006E83C201F0000E0116E6
:102D76000050011003E1070E676F1ED2EE51EF11EE
:102D860001E11AD2010E3C6F7D51020A02E1000EEA
:102D96007C1922E0000E7D1902E1000E7C1907E184
:102DA6003E51EF5D02E13D51EE5D01E315D076C285
:102DB6007AF377C27BF378C27CF379C27DF33C0E5B
:102DC60003017E6F000E7F6FBDEC02F0005204E03F
:102DD600100E0201676FF0D10201F06BF16BEF513B
:102DE600F15D02E1EE51F05DD8B012D13C0E7C25CA
:102DF600E16E000E7D21E26EF051EC25E96EF15197
:102E0600ED21EA6EEECFE6FF010E7C25006E000E88
:102E16007D21016E00C07CF201C07DF27D51020A67
:102E260002E1000E7C19D8A4EFD076C27AF377C2FD
:102E36007BF378C27CF379C27DF33C0E03017E6F8F
:102E4600000E7F6F41EC03F0005218E00201F051D2
:102E56007025006EF1517121016E000E7221026E15
:102E6600000E7321036E00C070F201C071F202C041
:102E760072F203C073F2050E676F9ED102017C6B7E
:102E86007D6B010E7625006E000E7721016E000E19
:102E96007821026E000E7921036E00C076F201C021
:102EA60077F202C078F203C079F2010E7A25006E3D
:102EB600000E7B21016E00C07AF201C07BF27B51CD
:102EC600401902E13F517A196AE174C259F375C299
:102ED6005AF348EC0CF000C0F2F201C0F3F20150D4
:102EE600FF0A02E1FF0E00182DE154EC04F000C0C9
:102EF600F2F201C0F3F20150FF0A02E1FF0E0018E0
:102F06000CE17EC270F27FC271F280C272F281C29F
:102F160073F20A0E0201676F4FD174C269F375C26C
:102F26006AF3F2C26BF3F3C26CF338EC05F0F2C24B
:102F360069F3F3C26AF3FF0E03016B6FFF0E6C6F4A
:102F460038EC05F0F2C274F2F3C275F202017A6B44
:102F56007B6B74C200F075C201F0000E026E036E48
:102F6600020E005E000E015A025A035A3FC204F0D6
:102F760040C205F0000E066E076E0FEC05F05051CC
:102F8600002651510122525102225351032200C000
:102F960076F201C077F202C078F203C079F2F051FE
:102FA600EE5D016EF151EF59026E020E025C02E116
:102FB600000E015C29E276C27AF377C27BF378C20F
:102FC6007CF379C27DF33C0E03017E6F000E7F6FAA
:102FD600BDEC02F0005218E00201F0517025006EBF
:102FE600F1517121016E000E7221026E000E7321E5
:102FF600036E00C070F201C071F202C072F203C02B
:1030060073F2100E676FD8D00201F04BF12BE7D6A2
:103016007C517D1115E076C27AF377C27BF378C2D4
:103026007CF379C27DF33C0E03017E6F000E7F6F49
:1030360041EC03F0005204E0050E0201676FBCD0BC
:103046000201EE517025016EEF517121026E000EE4
:103056007221036E000E7321046E01C070F202C06D
:1030660071F203C072F204C073F20450815D08E18C
:103076000350805D05E102507F5D02E101507E5DF7
:1030860008E270C27EF271C27FF272C280F273C22F
:1030960081F268C27AF369C27BF36AC27CF36BC2BF
:1030A6007DF33C0E03017E6F000E7F6FBDEC02F0D8
:1030B600005204E0100E0201676F7ED002013C0E42
:1030C6006C25006E000E6D21016E00C0F4F201C089
:1030D600F5F21C0E0024E16E000E0120E26E7EC2A7
:1030E600E6FF1C0EF425006E000EF521016E010EA2
:1030F6000024E16E000E0120E26E7FC2E6FF1C0E88
:10310600F425006E000EF521016E020E0024E16E1C
:10311600000E0120E26E80C2E6FF1C0EF425006E52
:10312600000EF521016E030E0024E16E000E012053
:10313600E26E81C2E6FF160EF425E16E000EF52161
:10314600E26E65C2E6FF160EF425006E000EF5214E
:10315600016E010E0024E16E000E0120E26E66C2D1
:10316600E6FF180EF425E16E000EF521E26E63C24D
:10317600E6FF180EF425006E000EF521016E010E15
:103186000024E16E000E0120E26E64C2E6FF68C212
:103196007AF369C27BF36AC27CF36BC27DF33C0EA1
:1031A60003017E6F000E7F6F41EC03F0005204E0D6
:0A31B600050E0201676F00D0120041
:1031C000060E02018215006E83C201F0000E011688
:1031D0000050011003E1070E676F06D0F66BF76B26
:0A31E000F86BF96B04EC13F0120019
:1031EA002FEC19F0010E0201EC6FED6BEE6B010E84
:1031FA00EF6F37DD17DD0050000A17E1EC6BED6B5E
:10320A00EE6B010EEF6F2DDD160EEC6F000EED6FFB
:10321A00800EEE6F52DDCFDF1F0EEC6F000EED6FEA
:0C322A00150EEE6F000EEF6F99DDFFD760
:10325E0010EE15F0270E006E010E016E360EF66E94
:0E326E00320EF76E000EF86E2EEC16F0120007
:013236000097
:09323700546573742E54585400C0
:10324000546573742057726974696E6720746F20B7
:08325000534420636172640025
:023258002E0046
:03325A002E2E0015
:020000040030CA
:0E000000000C1F1EFF8381FF0FC00FE00F409A
:00000001FF
